:100000000C9439020C9456020C9456020C94B41FB2
:100010000C9456020C9456020C9456020C94560200
:100020000C9456020C9456020C94DA240C94AE25CF
:100030000C94311E0C9456020C9456020C945602E9
:100040000C9456020C9456020C9456020C945602D0
:100050000C9456020C94D41E0C9456020C94560226
:100060000C9456020C9456020C9456020C945602B0
:100070000C9456020C9456020C9456020C945602A0
:100080000C9456020C9456020C9456020C94560290
:100090000C9456020C9456020C9456020C94560280
:1000A0000C9456020C9456020C94560214431A00F7
:1000B00008001500170004001600070009000A00D8
:1000C0001D221B000600190005002A422C430000D7
:1000D000000000001C0018000C00120013000B00B0
:1000E0000D000E000F003300110010003600370025
:1000F00038322C3428410000000000001E021F028C
:100100002002210222020000000000000000000086
:100110000000000000000000000024522C0000003D
:1001200000000000230224022502260227020157B4
:100130000257065708570957055703570B570C57CF
:100140000A572A0001000000000000001E001F00E6
:100150002000210022003A003B003C003D003E0010
:100160000000000000000000000001002C00000062
:1001700000000000230024002500260027003F0087
:10018000400041004200430000003E0036003700BE
:1001900038322A0024520000000000000000000055
:1001A00050014F010000E0000000000000000000CE
:1001B000E1000000000000000000E2002C00000050
:1001C0000000000000004A0000004D002A0050001E
:1001D000510052004F00000000003E0000000000EF
:1001E000E5002A00E60000000000000029000000F1
:1001F00000000000000039000000000000000000C6
:100200001D011B0106011901050001002C00000061
:100210000000000000000000000000002A000000B4
:1002200000000000000028000000000000000000A6
:1002300000002A0001000000000000000000000093
:1002400050014F0100000000E200E000E10000006A
:1002500050014F0100000000000000002C000000D1
:10026000000000004A004D000000000000005000A7
:10027000510052004F00000000003E00000000004E
:1002800000002A0000000000000000000000000044
:10029000000000002A2B28000000000000000000E1
:1002A0000000000000000029000000002C1E342087
:1002B000212224342627252E362D3738271E1F20AD
:1002C0002122232425263333362E37381F040506F2
:1002D0000708090A0B0C0D0E0F1011121314151636
:1002E0001718191A1B1C1D2F3130232D3504050634
:1002F0000708090A0B0C0D0E0F1011121314151616
:100300001718191A1B1C1D2F3130354C0000000026
:1003100000000000000000000000000000000000DD
:1003200000000000000000000000000000000000CD
:100330007E0F00D4FFFFFFC7000000781A034600BD
:10034000650072007200690073002000730077007E
:100350006500650070000000080344005000420082
:1003600000000403090409023B00020100A0FA098D
:1003700004000001030101000921110100012244D0
:1003800000070581030800010904010001030000C2
:1003900000092111010001227B00070582032000D2
:1003A000011201000200000008ABC239390100014E
:1003B00002000105010902A10185020901A1000550
:1003C0000919012908150025019508750181020503
:1003D00001093009311581257F95027508810609CB
:1003E000381581257F950175088106050C0A3802AC
:1003F0001581257F950175088106C0C0050109801A
:10040000A101850319012AB700150126B70095013E
:1004100075108100C0050C0901A101850419012A8C
:10042000A002150126A002950175108100C00501EA
:100430000906A101050719E029E71500250195081E
:10044000750181029501750881010507190029FFD1
:10045000150026FF00950675088100050819012979
:10046000051500250195057501910295017503910A
:1004700001C011241FBECFEFDAE0DEBFCDBF12E016
:10048000A0E0B1E0EAEFF0E502C005900D92A63FD2
:10049000B107D9F723E0A6EFB2E001C01D92A53F56
:1004A000B207E1F70E945B150C9434280C9400000D
:1004B000209A559A28985D980895CF93DF93EC0180
:1004C0000E9427048230C1F068F4882391F08130C3
:1004D00071F024E041E062E0CE010E947A09DF91F0
:1004E000CF910895833051F0843099F728985D9822
:1004F000F0CF289A5D9AEDCF2898EBCF28985D9899
:10050000F5CF8630B8F46830A8F4453098F450E060
:1005100095E0699F400D511D1124FA0198E2899FD1
:10052000E00DF11D1124EE0FFF1FE455FF4F8591E3
:100530009491089581E090E008950E9481020895C9
:100540009C013A9521153F4150F5FC01EE27F170D1
:10055000BC0166277270AC01442754709C012227AD
:10056000387094FF0EC080E1EF2B09F480E0672B18
:1005700009F08062452B09F08064232B89F08068A4
:10058000089581E0EF2B09F480E0672B09F0826089
:10059000452B09F08460232B19F08860089580E0D2
:1005A0000895CF93DF93EB010E94A002FE0109950D
:1005B000DF91CF910895CF93DF93EC01805E910995
:1005C000089720F06AEA77E0209711F46AE675E070
:1005D000CE010E94D1028C2F0E94CD04DF91CF91D9
:1005E0000895CF93DF93EC010E941605CE01805E43
:1005F0009109089720F061EB77E0209711F461E70B
:1006000075E0CE010E94D102DF91CF9108950F9342
:100610001F93CF93DF938C01EB010E94DB022097A5
:1006200041F4C8010E94F102DF91CF911F910F9117
:1006300008958FE99FE00197F1F700C0000021972E
:10064000EECF70E060E08933910511F460E570E071
:100650000E940703089581E008950E942B030895E6
:1006600081E008950E942B0308950E9432030895AB
:1006700008950E9438030895A6E0B0E0E2E4F3E0B4
:100680000C94902749835A839E833091FD0289817F
:100690009A8131111AC03E81332399F0222389F0C7
:1006A0000E941A09182F682F89819A810E94F608E2
:1006B00069817A81812F0E941D102696E3E00C94B7
:1006C000AC270E940809182FF3CF0E941A096981EC
:1006D0007A81F1CFFC01262F4081518162817381A3
:1006E000848195810E943C030895CF93DF93EC01B0
:1006F00061E00E946A03BE010E942D03DF91CF9149
:100700000895CF93DF93EC0160E00E946A03BE017D
:100710000E943903DF91CF91089581E008950E94EE
:100720008D030895CF93C82F0E94CE078C2F0E946F
:100730008F032FEF84E39CE0215080409040E1F74D
:1007400000C00000CF91089581E00E9492030E94B2
:10075000F81E089580E00E9492030E94091F0895E8
:100760000F931F93CF93DF938C0161E00E946A0384
:10077000EC01B8010E94271C882329F061E0C80120
:100780000E946A03EC01B801CE010E943503811179
:1007900006C080E0DF91CF911F910F910895B801BD
:1007A000CE010E944F1C8823A1F3B801CE010E9404
:1007B0007B15882371F3B801CE010E94791B882331
:1007C00041F3B801CE010E943B17882311F3B80111
:1007D000CE010E9411178823E1F2F8018581882358
:1007E00061F0C330FCE7DF07E9F058F4C115ECE72E
:1007F000DE07A9F0C130DC47B9F0C8010E94300320
:10080000C9CFCB358CE7D807A9F0CC35ECE7DE07AC
:1008100071F0CA35DC4789F70E945F0DEECF0E9468
:10082000A403B7CF0E94670D0E94AA03B2CF0E9413
:10083000550DE3CF0E94630DE0CF0E940E1E0E9473
:10084000680408950E946C040E94131E0895292FC5
:10085000332740E02115310511F0C90148E09C0122
:1008600064E0369527956A95E1F72115310511F079
:100870004C5FC9019C013695279536952795211522
:10088000310511F04E5FC90196958795892B09F0C6
:100890004F5F842F0895089581E008950895CF93C0
:1008A000DF93D82F0E944C04C82F882319F08D2F76
:1008B0000E944E048C2FDF91CF9108950895CF931D
:1008C000C82F0E944B048C2F0E944F04CF91089593
:1008D00080E00E945F0408950E94DA1C0E945F0479
:1008E0000895CF930E94DA1CC82F8091F8028C17CC
:1008F00079F0C093F8020E949D1E6093F9027093F4
:10090000FA028093FB029093FC028C2F0E945F04FA
:10091000CF910895ADE0B0E0E0E9F4E00C949127C8
:10092000488759876A877B878C879D8791110E94AA
:10093000920C1F8286E0FE013896DE01119601902E
:100940000D928A95E1F78D8181110DC029813A813F
:100950004B815C816D817E818F810E94D60B2D96AB
:10096000E2E00C94AD27CE0101960E94750381113F
:10097000EDCFF5CFFC012481213021F480819181DC
:100980000E944C090895662329F00E949C180E9439
:10099000811908950E940819FACFCF93C82F882390
:1009A00099F08CEF8C0F813A88F48C2F0E94691D8E
:1009B000882329F08C2F0E94AC1D0E94040D8C2FDF
:1009C0000E94A41D0E94040DCF91089580E28C0F17
:1009D000883048F4C77081E001C0880FCA95EAF7F3
:1009E0000E946F0CEFCFEBE5EC0FE33040F4F0E04A
:1009F000E854FD4F808190E00E940A1DE5CFE8E5B4
:100A0000EC0FEB3150F4F0E0EE0FFF1FEE57FD4F0F
:100A1000808191810E942F1DD7CF83E38C0F83317A
:100A200098F661E08C2F0E94C304CECF882381F119
:100A30009CEF980F913A28F40E94AC1D0E94040D7F
:100A4000089590E2980F983050F4877091E001C0BB
:100A5000990F8A95EAF7892F0E94750CEFCF9BE5D5
:100A6000980F933028F490E080E00E940A1D0895CA
:100A700098E5980F9B3128F490E080E00E942F1DAC
:100A8000089593E3980F933118F460E00E94C30433
:100A900008951F93CF93DF93182FEB010E94CD048D
:100AA000209739F4812F0E941605DF91CF911F9175
:100AB00008958FE99FE00197F1F700C000002197AA
:100AC000EFCF70E060E0893311F460E570E00E94E0
:100AD00049050895882321F00E946F0C0E94040D9F
:100AE0000895882321F00E94750C0E94040D08953A
:100AF000B0E0A0E0EEE7F5E00C948A276C01D62F79
:100B0000C72FFC011581068102950F700E94650CAC
:100B1000E82E8823F9F0E12E1123E1F08C2F807F5D
:100B2000803461F080E28D0F883008F18C2F807E58
:100B3000803221F4D230D8F00023C9F08091CE0366
:100B400082FF15C082E00E94290D0E94650C91E091
:100B5000E82EE926BC2EB2949FE0B922FBE0FB15FB
:100B6000B8F1EB2DF0E0EA5CF74D0C947B27E12C1B
:100B7000F1CF0C2F0F70C07F11F00295007F112371
:100B800099F0002359F080E28D0F883010F0D111D8
:100B900007C0802F0E946F0C0E94040D8D2F5AC039
:100BA000802F0E94850CF8CF8D2F0E941605002300
:100BB00079F080E28D0F883010F0D11104C0802FC1
:100BC0000E94750C03C0802F0E948B0C0E94040DA4
:100BD000EB2DE850FF0B349720F40E94DA1C0E94A2
:100BE0005F04EE2089F00E94610C80FD0DC0F601CB
:100BF00015820E945B0C0E945408C6010E94870760
:100C00000E945B0C0E946408CDB7DEB7E9E00C944B
:100C1000A6272C2F2F70F22EC07FC03219F0F2942D
:100C200080EFF822DD2341F0D130D1F1112309F416
:100C300044C00023F1F0B2CF8091CE0382FD15C0F5
:100C4000112359F0FF2029F08F2D0E946F0C0E9474
:100C5000040D80E00E94CD04BBCF80E00E94160509
:100C6000FF2009F4B5CF8F2DABCF112369F001110F
:100C700004C08F2D0E946A05ABCF013009F0A8CFC8
:100C80008F2D0E94AC0CA4CF0111A2CF8F2D0E94FA
:100C900071058F2D0E94B80C8F2D0E949C0C98CF4F
:100CA000112321F0063008F093CFE3CF053008F090
:100CB0008FCF8F2D0E9471058BCF0023D1F3D933B5
:100CC00049F43FEF87EE93E0315080409040E1F7E8
:100CD00000C000008D2F0E9416057ACF8C2F8695BC
:100CE0008695837069F0813009F072CF8D2F9C2F2B
:100CF0009370111102C080E090E00E942F1D68CF18
:100D00008D2F9C2F9370111102C080E090E00E9403
:100D10000A1D5ECF612F8D2F0E94C30459CF8C2FE7
:100D20008370A1F5111154CF4D2F42954695477010
:100D3000440F440F2D2F2F7030E0042E02C0220FDD
:100D4000331F0A94E2F790E080E0D4FF09C08FE0FF
:100D500090E002C0880F991F4A95E2F78095909520
:100D6000C695C695C370822B932BC23049F058F4B8
:100D7000C13019F00E9427082BCF0E941E0828CFEF
:100D80000E94300825CF0E941B0822CF8695112390
:100D900011F08C2F8170882309F41ACF4D2F4295C2
:100DA00046954770440F440F2D2F2F7030E0042ECE
:100DB00002C0220F331F0A94E2F790E080E0D4FFD4
:100DC00009C08FE090E002C0880F991F4A95E2F7B2
:100DD00080959095C695C695C370822B932BC23093
:100DE00049F058F4C13019F00E948F08F1CE0E94EA
:100DF0008608EECE0E949808EBCE0E943C08E8CE12
:100E0000CF70112329F08C2F0E9454088D2F32CFE0
:100E10008D2F0E9471058C2F0E946408D9CED23F7D
:100E200041F160F4D03FB9F0D13F81F0112309F4D2
:100E300046C00111B3CE8C2F8F711FC0D33F01F17B
:100E4000D43FA1F78091CE0382FD24C08C2F8F71F7
:100E5000112311F312C0112341F0053008F0B8CE70
:100E60008C2F8F710E947608B3CE063008F0B0CE7A
:100E7000F7CF8C2F8F711111CFCF0E945408A8CEBD
:100E8000112329F08C2F8F710E944808A1CE0E9457
:100E900043089ECE112349F0CF718C2F0E94540835
:100EA00063E08C2F0E940B0D93CE81E00E94290DF0
:100EB000023008F48DCE82E00E94290D89CE0023F5
:100EC00059F0D93309F006CFEFEFF7EE23E0E15008
:100ED000F0402040E1F7FCCE8C2F8F719DCF0F9317
:100EE0001F93CF93DF93EC01688179818D810E94FC
:100EF00057098C010E94A1080E941A08B801CE016E
:100F00000E947805DF91CF911F910F910895CF93A3
:100F1000DF93EC018C81882399F0CE010E94B0030D
:100F2000811111C00E94650C882351F08D818823A6
:100F300039F08091CE0382FF03C082E00E94290D28
:100F4000DF91CF910895CE010E946F07CE010E94DC
:100F50008103F6CF882321F00E94850C0E94040DA6
:100F60000895882321F00E948B0C0E94040D08959F
:100F700090E080E00E940A1D90E080E00E942F1D1A
:100F80000E94920C0E94040D0E949D190E948119DA
:100F900008950E94B41D0E94B80708950E947F0C16
:100FA0000E94C907089592959F70963091F058F469
:100FB000925F9F70923058F4803F19F030F4883E71
:100FC00030F481E008959A5FF4CF843FD1F380E05C
:100FD0000895883EB0F3813FD1F7F3CFFC0124811F
:100FE000222339F0808191810E944C090E94D3070D
:100FF000089580E00895A6E0B0E0E1E0F8E00C9408
:1010000091272696E2E00C94AD27A7E0B0E0EBE054
:10101000F8E00C9491272796E2E00C94AD27089510
:101020000E940F0808950E94100890931503809362
:101030001403089508950E9413080895209114033D
:1010400030911503822B932B0E9413080895209151
:10105000140330911503822393230E9413080895EB
:101060002091140330911503822793270E941308BF
:1010700008950E945D0208950E9439089093130319
:1010800080931203089590E080E00E943C08089548
:1010900021E030E0A90102C0440F551F8A95E2F714
:1010A000CA010E943C08089521E030E002C0220FEE
:1010B000331F8A95E2F78091120390911303822BDC
:1010C000932B0E943C08089521E030E002C0220FDB
:1010D000331F8A95E2F72095309580911203909105
:1010E0001303822393230E943C08089521E030E0FB
:1010F00002C0220F331F8A95E2F78091120390916C
:101100001303822793270E943C080895209112031D
:1011100030911303822B932B0E943C080895209159
:10112000120330911303822393230E943C080895F5
:101130002091120330911303822793270E943C08C9
:1011400008950895262F277091E001C0990F2A95E0
:10115000EAF723E0769567952A95E1F7660F771F02
:10116000660F771FFA01E60FF71F50E040E0682F87
:1011700070E08191DF0111979B01042E02C036952A
:1011800027950A94E2F721702195282729232827FB
:101190002C934F5F5F4F4430510559F70895A82FA6
:1011A000A77023E0969587952A95E1F7880F991FF8
:1011B000880F991FFB01E80FF91F50E040E080E025
:1011C000219130E00A2E02C0369527950A94E2F765
:1011D00021703327042E01C0220F0A94EAF7822BD4
:1011E0004F5F5F4F4430510559F70895262F9830CF
:1011F00070F4853060F4682F70E085E0989F600D92
:10120000711D11244EEF52E0822F0E94A208089512
:10121000292F983068F4853058F490E06EEF72E032
:1012200035E0239F800D911D11240E94CF08089561
:1012300080E00895B0E0A0E0E0E2F9E00C948A27B5
:101240007C0100911203109113038091140390917B
:101250001503082B192BCFE0D0E0CC24C394D12C5C
:10126000BC2EC6010C2E02C0880F991F0A94E2F70B
:1012700080239123892B49F4219790F7B12C8B2D52
:10128000CDB7DEB7E9E00C94A627B7018C2F0E94FA
:101290002910019789F3F3CFCF93DF93EC010E94DC
:1012A0001A09BE010E942910DF91CF9108951F9362
:1012B000CF93DF93EB019091FD02992339F0CB019D
:1012C0000E944C09DF91CF911F910895882369F006
:1012D000CB010E941A09182F682FCE010E94F60830
:1012E000BE01812F0E942910EDCFCB010E94080979
:1012F000182FF6CFE1E0F0E0DF0102C0AA0FBB1F1C
:101300006A95E2F7BD01DF0102C0AA0FBB1F4A9533
:10131000E2F7AD01462B572B02C0EE0FFF1F2A95B7
:10132000E2F79A01282339232417350719F48E2B65
:101330009F2B0895E095F0958E239F2308951F938A
:10134000CF93DF93C091160317E0809117038C139E
:1013500004C0DF91CF911F910895D0E01C9FF00150
:101360001D9FF00D1124E85EFC4F208131814281E8
:1013700053816481758186810E9405082196C7701A
:10138000E4CF20915003309151034091520350918A
:1013900053036091540370915503809156030E944A
:1013A00005080895CF93DF9380915603807F09F05D
:1013B0004DC080915503882309F448C0E09116037D
:1013C00050911703C0915103D09150036091520383
:1013D0007091530347E05E17C9F18E2F90E0E49FB0
:1013E000F0011124E85EFC4F2481222391F1489FF3
:1013F000F001499FF00D1124DF01A85EBC4F11964A
:101400002C9111972C1325C02C912D1322C01596C9
:101410002C91159721111DC012962D913C91261BE0
:10142000370B2A3F3105A8F4809156038F708061F5
:1014300080935603E25EFC4F80818F7080618083D1
:1014400080E593E00E9487070E949F09DF91CF917A
:101450000895FC013196E770BECF482F2091160306
:101460009091170357E0291302C080E0089530E0FF
:10147000529FF001539FF00D1124E85EFC4F8181D3
:10148000681306C08081481303C085818111EECFA7
:101490002F5F3F4F2770E7CFA4E1B0E0E2E5FAE02D
:1014A0000C9487278C0186E0F801DE011F960190DD
:1014B0000D928A95E1F7F8018481E58090E5A92EE7
:1014C00093E0B92E9091540391111FC08823D1F05D
:1014D000EE20A9F0C8010E94EE07F82E882379F0CB
:1014E00087E0F801D50101900D928A95E1F7C501D9
:1014F0000E94BA040E94D2090E94C1095FC0C801BB
:101500000E948707FF24F39459C0C080D180828055
:101510009380F09055032091520330915303A4011E
:10152000421B530BFF2009F4F9C04A3F510508F054
:10153000A7C0882309F442C09091510380915603BB
:10154000282F207F09F05CC09D1116C09091500398
:10155000C91212C0E1104EC08F7080618093560393
:101560000E94C10980E593E00E948707809156039D
:10157000F8018683F12C22C0E1103CC06D2D8C2D2A
:101580000E942D0A6D2D8C2D0E942D0AE82E8111AE
:10159000F1CFCF86D88A8F8598890E944C09292F50
:1015A00022952F70243078F49F702230A8F0992370
:1015B000B9F0F8019681907F99F4FE2C8F2D6496F6
:1015C000ECE00C94A3272A5F2F70223068F0C8014A
:1015D0000E948707EF2CF1CF992311F0882369F33C
:1015E000805E883050F3F3CF803F38F3815F8330E3
:1015F00070F7E3CF80915603816080935603BACF92
:101600009D1113C090915003C9120FC0E1100DC07D
:101610008683C8010E94870787E0F801A0E5B3E050
:1016200001900D928A95E1F767CFC8010E94EE07FD
:10163000882309F464CFEE2009F461CF809156032A
:10164000803288F0209150033091510339872887E8
:101650009B868A86909154039C871D868E87CE0137
:1016600008960E94870787E0F801A0E5B3E00190A3
:101670000D928A95E1F70E94D2090E94C10942CFDA
:1016800090915603292F207FA1F4682D9A8A898A88
:10169000A6017A899E2D0E94FB0780E593E00E94B7
:1016A000870787E0F50111928A95E9F70E94C10941
:1016B00061CF882309F482CF809151038D1110C02E
:1016C00080915003C8120CC0E1100AC09683C80173
:1016D0000E94870787E0F50111928A95E9F76ECF9E
:1016E000C8010E94EE07882309F409CFEE2009F40F
:1016F00006CF80915603803208F4B5CF2091500375
:10170000309151033A8329839C828B8290915403B8
:101710009D831E828F83CE010196A3CF4A3F510540
:10172000B8F5882309F4EECEFE2CEE2009F4E7CEBE
:10173000809151038D111EC080915003C8121AC0B0
:101740008091560380FD0DC0982F907F51F08683C5
:10175000903F09F45ECF982F907F905F8F70892B18
:1017600057CF87E0F801A0E5B3E001900D928A958C
:10177000E1F724CFC8010E94EE07811174CF809158
:101780005603816080935603C8010E94870716CFD5
:10179000682D9A8A898AA6017A899E2D0E94FB0764
:1017A00087E0F50111928A95E9F7A6CEAEE0B0E0A8
:1017B000ECEDFBE00C949027288739874A875B87FC
:1017C0006C877D878E87CE0108960E944C0A8823FD
:1017D000B1F06C85662341F0288539854A855B85A3
:1017E0007D858E850E94050817E0809116039091F3
:1017F000170389133DC02E96E3E00C94AC2787E0D5
:10180000FE013896DE01119601900D928A95E1F75E
:101810008C85882349F32091170330E0C901019694
:1018200087709927409116034817190699F097E099
:10183000929FD001939FB00D1124A85EBC4FFE0172
:10184000319601900D929A95E1F7809317030E94CB
:101850009F09CACF0E94CE07109217031092160359
:1018600087E0E0E5F3E0DF011D928A95E9F7BCCF60
:10187000819FC0011124885E9C4F0E944C0A8823DE
:1018800009F4B9CFE09116031E9FF0011124E85E20
:10189000FC4F208131814281538164817581868131
:1018A0000E9405088091160390E0019687709927A1
:1018B000809316039ACF80915F03869586958695CF
:1018C000089580915F038770089590915F039770EA
:1018D00081E009F480E0089580916B030895909170
:1018E0006B03892B80936B030895809590916B0314
:1018F000982390936B03089580936B03089510923F
:101900006B03089580916A03089590916A03892B6F
:1019100080936A030895809590916A039823909329
:101920006A03089510926A030895809161030895EF
:1019300008950E94980C089590916003292F282300
:1019400031F080958923809360030E94990C08955B
:1019500008950E94A80C089590916103292F2823CF
:10196000281729F0982B909361030E94A90C0895E1
:1019700090916103292F282331F08095892380934A
:1019800061030E94A90C089580916103882329F0C6
:101990001092610380E00E94A90C08950F931F9399
:1019A000CF93DF9300912C0210912D02C0916B0315
:1019B00080916A03C82B80916103882331F0C82B82
:1019C0000E94541D81110E94C40CF801C083C09173
:1019D0002C02D0912D0248E050E067E573E0CE0183
:1019E0000E94CC27892B59F088E0FE01A7E5B3E0DF
:1019F00001900D928A95E1F7CE010E94F11CDF91D2
:101A0000CF911F910F9108950E94CE0C08950895D3
:101A10000E94070D08959091CE0392FF11C098E0A7
:101A2000899F90011124622B60935F030E945408E8
:101A300080915F038695869586950E94080D08958E
:101A40000E945408089510925F0380E00E94080DE0
:101A5000089590915F038095892380935F03282FD9
:101A6000277069F4891759F09091CE0392FF07C04F
:101A70008695869586950E9464080E94230D089598
:101A80009091CE0392FB222720F9281769F080FB62
:101A900092F99093CE038091CD039091CE030E9452
:101AA000880D82E00E94290D08958091CE0382FB6B
:101AB000882780F991E089270E94400D089581E0F0
:101AC0000E94400D089580E00E94400D08956FEF40
:101AD0007FEF90E080E00E941E28089590E080E073
:101AE0000E94EA2721E0863E9E4F09F020E0822FE7
:101AF000089582E090E00E94E227089583E090E05C
:101B00000E94E227089584E090E00E94EA27089569
:101B1000BC0184E090E00E941E280895AB01BC0146
:101B20008FE090E00E9412280895AB01BC0183E190
:101B300090E00E941228089560E070E0CB010E94BE
:101B4000950D089560E070E0CB010E948E0D0E941B
:101B50009C0D0895A8E0B0E0E0EBFDE00C94912727
:101B600066EE7EEF90E080E00E941E2860E082E05A
:101B700090E00E94002881E090E09093150380930C
:101B8000140361E083E090E00E94002860E074E1CB
:101B900084E090E00E941E2860E086E090E00E94D1
:101BA00000286FEF87E090E00E94002840E050E0BE
:101BB000BA0188E090E00E94122860E084E290E0A0
:101BC0000E94002860E087E190E00E94002860E029
:101BD0008CE090E00E94002860E08DE090E00E94A0
:101BE000002819821A821B821C821D821E821F827B
:101BF000188648E050E068E170E0CE0101960E944E
:101C0000F02740E050E0BA0180E290E00E94122804
:101C10000E94A20D2896E2E00C94AD270E94AA0D26
:101C200008958EE090E00E94E22791E0811101C0CA
:101C300090E0892F0895682F8EE090E00E940028A0
:101C40000895A6E0B0E0E7E2FEE00C948F270E9442
:101C5000911E8C0180916C0390916D038017910708
:101C600081F019821A820E94911E682F49815A813F
:101C7000792F80E090E00E948A0410936D03009316
:101C80006C032696E4E00C94AB270E944511609308
:101C90007A0370937B0380937C0390937D0360931E
:101CA0007603709377038093780390937903089574
:101CB00008950E945802089508950E945C0E0895A8
:101CC00081E008958FE591E10E9468150E94580E09
:101CD0000E94590E08950E945F1308950895089573
:101CE0000E946E0E0E946F0E08950E948B110E943A
:101CF0005E040E94CB1508950E94881E0E941F1149
:101D00000E9462130E947C120E94750E0E94F916B6
:101D10000E9474130E945D0E08950E945F1381114A
:101D20000E94B11C0895A6E0B0E0E9E9FEE00C9441
:101D300088270E94600E81110CC00E94210E0E9413
:101D40008D0E0E94BF190E9471042696EBE00C9440
:101D5000A4270E94D0128EE6A82E83E0B82E75012B
:101D600010E0F70101917F01812F0E94B1111F5FE7
:101D7000183009F441C00817A1F380917E0381FD5A
:101D80000E94B7110E946B0EC82E10E09924939404
:101D9000812F0E94B111082FF50181915F01081771
:101DA00029F1F12CEE24E394D02ED8268D2D8E210E
:101DB000A9F0CC2099F0F9821A830E94911E9C838D
:101DC0008B839D8291E0802F8E2109F490E04981E0
:101DD0005A816B817C818D810E948A04F394EE0C80
:101DE000F5E0FF12E3CFF501319700831F5F183054
:101DF00079F60E94450EA3CF0813BFCF9ECF1F9345
:101E0000CF93DF930E942E10EC01C11580E5D80717
:101E1000F0F5C11580E4D80708F09CC0C03ED1059C
:101E200020F5CD3CD10508F082C0C83AD10578F440
:101E3000C53AD10508F073C0C130D10519F120971A
:101E400009F1C430D105F0F4D0E0C0E01BC0C33CC0
:101E5000D105D0F7C85AD0E0CC0FDD1FC554DD4FF7
:101E60000990D881C02DD4640DC0C11580E2D80777
:101E700008F0D1C0C11581E0D80708F05AC0C83EAB
:101E8000D10510F7CE01DF91CF911F910895C03693
:101E900082E5D80718F5C03482E5D80708F06BC092
:101EA000C03282E5D80708F05FC0C11582E5D807C7
:101EB00008F497C02C2F2695269580E2289F900144
:101EC00011248C2F8370C1E0D0E002C0CC0FDD1F45
:101ED0008A95E2F7C22BD32BDD68D4CFC03A82E5D6
:101EE000D80760F4C03882E5D80708F459C0CF712C
:101EF000D0E0DC2FCC27C46FD06AC4CFC03C82E5D1
:101F0000D80708F462C0C03E82E5D80708F09CCF2D
:101F1000DC2FCC27CC27DF71C06FD06AB3CFC55A76
:101F2000D0E0CF50DD4FC881D0E0D064ABCFD065DA
:101F3000A9CF8D2F0E94D010182FCE0199270E9473
:101F40002E10C12FD0E0DC2FCC27CC27DF71C82B7F
:101F5000D92B98CFCE0199270E942E10CC27DF7065
:101F6000C82BD92BD06A8ECFCF71D0E0DC2FCC27F5
:101F7000C16FD06A87CF2C2F26952695277080E2D7
:101F8000289F900111248C2F8370C1E0D0E002C003
:101F9000CC0FDD1F8A95E2F7C22BD32BDC6872CF02
:101FA0002C2F26952695277080E2289F90011124DA
:101FB0008C2F8370C1E0D0E002C0CC0FDD1F8A956A
:101FC000E2F7C22BD32BDA685DCF8C2F8F710E9482
:101FD000D010C82FD0E0DC2FCC27CC27DF71D06207
:101FE00051CF8C2F8F710E94D01055E0D695C79598
:101FF0005A95E1F7CF70D0E0DC2FCC27282F30E0C6
:1020000084FF05C044E0220F331F4A95E1F7C22B3D
:10201000D32BD06937CF8D2F8F710E94D010182FFE
:10202000CE0199270E942E10C12FD0E0DC2FCC27A3
:10203000CC27DF71C82BD92BD2CF462F783030F484
:10204000653020F4672F0E949D02089590E080E0A3
:1020500008950E941D100E94FF0E08958238910578
:10206000B9F1B0F48133910509F47DC048F48932A7
:10207000910509F46DC08A32910509F47BC0089579
:102080008533910509F45FC08933910509F10895FD
:10209000833E9105D9F138F4803E910529F1823EC5
:1020A000910579F10895863E9105D9F1873E910514
:1020B00009F43EC0843E910541F52091CE0321FFF5
:1020C00024C08091CD0384FD19C087EE90E008956F
:1020D0002091CD03237009F05AC02091CE0323FF35
:1020E00014C089E290E008952091CD0320FD38C00E
:1020F0003091CE0330FF09C024FF43C090E080E060
:1021000008952091CD0322FDF7CF08952091CD03AE
:1021100022FD3AC03091CE0330FD39C024FFF5CF07
:10212000EDCF2091CD0323FFF0CF24FDE7CFCDCF1E
:102130002091CD0323FD2EC03091CE0331FFEECF91
:1021400084EE90E008952091CD0325FFDECFC9CF26
:102150002091CD0325FD21C02091CE0323FFD5CFB3
:1021600089E390E0D2CF2091CD0326FFCECF8AE243
:1021700090E008952091CD0326FFC7CF81E390E042
:10218000089583EE90E0089582EE90E0089580EE49
:1021900090E0089586EE90E0089585E390E008953C
:1021A0009091CD0392FF10C041E0282F247124307C
:1021B00009F040E031E0282F2871283009F030E0A4
:1021C000431711F02CE0822793FF10C041E0282F25
:1021D0002471243109F040E031E0282F28712831A2
:1021E00009F030E0431711F02CE082273091CE0344
:1021F00030FF10C051E0282F2171213009F050E04C
:1022000041E0282F2871283009F040E0541711F0E0
:1022100029E0822731FF10C041E0282F21712131B0
:1022200009F040E031E0282F2871283109F030E032
:10223000431711F029E0822794FD877E08951092BC
:10224000C9031092CA031092CB031092CC030895D5
:10225000CF92DF92EF92FF926B017C010E945F139D
:1022600081110EC00E949D1EC61AD70AE80AF90AFB
:10227000C092C903D092CA03E092CB03F092CC0380
:10228000FF90EF90DF90CF9008950F931F930E94DF
:102290005F13882329F00E949D1E1F910F910895BE
:1022A0000E949D1E0091C9031091CA032091CB0387
:1022B0003091CC03600F711F821F931FEECF80E01F
:1022C00008950E94670D0895CF930E94D0122FEFBA
:1022D00086E791E0215080409040E1F700C0000087
:1022E0000E94D0120E945C13C4E08111C0E08C2FC8
:1022F0000E94B11190E002C095958795CA95E2F7CA
:1023000080FF04C00E9461110E94F81ECF910895C1
:102310000E94641108950E946E0D811102C00E94F6
:102320000E0E0E94790D80937E030E94830D909380
:10233000CE038093CD030E9488110E947E0D90E011
:102340000E941B0880911203909113030E94390888
:10235000089508950E94A911089508950E94AD114D
:102360000895E82FF0E0E852FC4F80810895089529
:1023700008950E94B8110895EF92FF921F93CF9392
:10238000DF9300D000D0CDB7DEB70E945F13182FC7
:102390006091E003882309F447C019821A821B82E6
:1023A0001C82862F90E09E012F5F3F4F7901B9017B
:1023B00088529C4F0E9482138823E9F08091CF03BA
:1023C00090E044E050E0B70188529C4F0E94CC2737
:1023D00021E020937F03892BC9F410E00E94AE1105
:1023E000812F0F900F900F900F90DF91CF911F9141
:1023F000FF90EF90089580917F03882371F384E02C
:10240000F70111928A95E9F710927F03E091CF03CB
:10241000F0E0E852FC4F89819A81AB81BC818083D6
:102420009183A283B383DACF70E068527C4F8091AE
:10243000CF0390E088529C4F0E9409140E94B9116A
:10244000CFCF1F93CF93DF932EE232E0C1E0D0E0F5
:10245000D90150E040E08D918F3F91F0E82FE29557
:10246000EF70F0E011A18F70BE0101C0660F8A9578
:10247000EAF7962F9095912391A382A1862B82A3B0
:102480004F5F5F4F4530510531F72B5F3F4F82E083
:1024900022343807E9F6DF91CF911F910895CF9349
:1024A000DF93AC01A62FB0E085E0689FF001112416
:1024B000E25DFD4F70E081E060E091919F3FD1F0DF
:1024C000C92FC295CF70D0E028A130E09F7002C024
:1024D000359527959A95E2F720FD0CC0282F622BA1
:1024E0007F5F880F753049F7A40FB51F6C93DF919C
:1024F000CF91089520E0F3CFA4E1B0E0E2E8F2E16B
:102500000C94912780914202811126C084E1EEE66D
:10251000F2E0DE01119601900D928A95E1F7FE013D
:102520003196AEE2B2E0CE01459620812C93218116
:1025300011962C931197228112962C931297238136
:1025400013962C931397248114962C9314973596F5
:1025500015968E179F0749F78091420294E08111EA
:1025600090E09093E00384E0891B8093CF030E9466
:10257000211288E0E8EDF3E0DF01982F1D929A9593
:10258000E9F7E0EDF3E0DF011D928A95E9F784E0D9
:102590000E940E130E94AA116496E2E00C94AD27EB
:1025A000A8E0B0E0E6EDF2E10C948E278E010F5F1B
:1025B0001F4F88E0F80111928A95E9F7F12C6F2DF1
:1025C000C8010E944F12F394F4E0FF12F8CF48E0E4
:1025D00050E0B80180ED93E00E94CC2721E0009705
:1025E00009F420E0892B41F088E0F801A0EDB3E088
:1025F00001900D928A95E1F76091E00370E06852D6
:102600007C4F44E080ED93E00E940F13182F0E944E
:10261000BC11812B2896E5E00C94AA270895B0E020
:10262000A0E0E5E1F3E10C948B276C017B01042F22
:10263000C22F222379F081E0809382030E94911EB1
:10264000909381038093800380E0CDB7DEB7E8E00C
:102650000C94A727D0918203DD23B1F380918003EE
:10266000909181030E94A91E059770F310E0A801C4
:10267000B601C7010E94CC27892B31F0A801B60111
:10268000C7010E94D927CD2F109282038C2FDDCF56
:102690000E946E0D811102C00E940E0E0E94110E4A
:1026A0000895CF930E945A27C82F811102C00E941B
:1026B00055278C2FCF91089580918603089580919E
:1026C000850308950E945113809385030E94481347
:1026D000809386030E945C13809342020E945F13E2
:1026E00081110E94B81308950E945F13811102C0E6
:1026F0000E94BB13089581E0909187039A3008F0FF
:1027000080E008950F931F93CF93DF93EC018B012B
:10271000809187038A30B8F4B801CE010E94061474
:10272000C82F811122C0809187038F3FB9F40E9486
:10273000911E90938403809383038C2FDF91CF911C
:102740001F910F91089580918303909184030E94BB
:10275000A91E843F914000F7C0E0EFCF8F5F8093C8
:1027600087038A3020F7C1E0E8CF10928703E5CFD6
:102770000E946E1F08950E94711F0895B0E0A0E0AE
:10278000E4ECF3E10C948C277901C82F880FDD0B62
:1027900041155105A9F0FE0193E0EE0FFF1F9A9538
:1027A000E1F7ED5BFD4F8181928188579C4F20813D
:1027B00030E04217530708F49A01A9010E94D92773
:1027C000CE010E945A20D82E8823D1F00115110580
:1027D000B9F083E0CC0FDD1F8A95E1F7FE01ED5BD8
:1027E000FD4F438150E00417150708F4A801CD5BA5
:1027F000DD4F6C817D8168577C4FC7010E94D927CE
:102800008D2DCDB7DEB7E7E00C94A8270E94001508
:1028100008950E9417150895A4E0B0E0E2E1F4E104
:102820000C948F2760919D0370919E0380919F036C
:102830009091A0030E94B81E11E0643671058105D5
:10284000910518F10E9445116E5F7F4F8F4F9F4F8A
:1028500069837A838B839C8310E000E030E020E082
:1028600044E050E0BE016F5F7F4F82E00E94BE13E4
:10287000182F882351F00E949D1E60939D03709332
:102880009E0380939F039093A003812F2496E4E0FE
:102890000C94AB27B0E0A0E0E0E5F4E10C948927CC
:1028A0007C015B016A010E947B1301E010E0882338
:1028B00011F00AE010E0C1E0D0E0B501C701F60177
:1028C0000995811104C021960C171D072CF4CDB772
:1028D000DEB7EAE00C94A527CC9F9001CD9F300D88
:1028E000300D112490E080E045E34A95F1F70000B7
:1028F000019682179307C1F7E0CFA5E0B0E0E3E8C7
:10290000F4E10C9489275B01E090F402F090F50269
:1029100001E010E09E012B5F3F4F50E040E070E08F
:1029200060E080E00E94BE13182F882309F44BC09A
:1029300067018FEFC81AD80A6091990370919A03C2
:1029400080919B0390919C030E94B81E6436710590
:102950008105910580F104E010E09E012F5F3F4F5B
:1029600050E040E070E060E081E00E94BE13F82E8D
:1029700064E070E0C6010E94FA1611E09D81981390
:1029800010E01F2159F10E949D1E609399037093DE
:102990009A0380939B0390939C0389819A81AB81D6
:1029A000BC818093950390939603A0939703B09373
:1029B000980311E013C064E070E0C6010E94FA16AB
:1029C0009D818913C8CFF70181819281A381B48150
:1029D00089839A83AB83BC831111DFCF80919503E8
:1029E00090919603A0919703B0919803F50180838D
:1029F0009183A283B383812F2596EAE00C94A527C7
:102A00000F931F93CF93DF93EC018B014DE754E1BC
:102A10000E944A14882331F04CE054E1B801CE0101
:102A20000E944A14DF91CF911F910F9108950F9347
:102A30001F93CF93DF93C091F402D091F502CE01A2
:102A4000019624E0FB01DC0101900D922A95E1F74B
:102A500064E070E00E94FA1688836D817E818F8128
:102A600098850091910310919203209193033091E6
:102A70009403601771078207930751F060939103E5
:102A80007093920380939303909394030E94281170
:102A9000DF91CF911F910F9108950E942B220E94E8
:102AA0007C0E0E94382208950E943D220E94930EBF
:102AB0000E94572208950E942A1E0E9411220E94FD
:102AC000620E0E944D150E9454150E94700EFBCF9D
:102AD0009093F7028093F6020895FB01258122234B
:102AE00041F097FF06C09F77BC0190E080E00E9414
:102AF000B11681E008950F931F93CF93DF93EC01FC
:102B00008B01FB018581882389F00E946C0C827205
:102B1000FE01E053FC47E830F10540F4EE5BF74D71
:102B20000C947B27882369F00E94E315B801CE013D
:102B30000E946D15DF91CF911F910F910895882309
:102B400099F30E94E215F2CF80E00E94D415EECFF7
:102B500081E0FBCF82E0F9CF83E0F7CF84E0F5CFCF
:102B600085E0F3CF9091E203923071F48A3050F413
:102B700090E009966AE070E00E946727875A0E94F9
:102B8000610508958650FBCF0E940A1B08950895A1
:102B90000E94C71508958CE090E00E94E227809380
:102BA000E2030E94C8150895CF93C82F8093E203D3
:102BB000682F8CE090E00E9400288C2F0E94C8159E
:102BC000CF910895089508950E94EE1C8093E1032B
:102BD0009091E203913029F481FF03C089E30E94C0
:102BE00061050E946C0C8093E3030E947F0C0E949D
:102BF000920C8091E203823021F158F48823C1F0D5
:102C00008130D1F08FE39CE90197F1F700C000001B
:102C10000895843051F18530A9F78BE191E00E944D
:102C2000210385E290E00E94210388E290E006C043
:102C300082EE0E94CD04E6CF88E193E00E9421035A
:102C4000E1CF8091E10380FD03C083E50E9461052F
:102C500082EE0E94CD048FE39CE90197F1F700C05A
:102C6000000087E50E946105CDCF86EE0E946105D8
:102C700088E1F8CF8091E203823011F148F4882393
:102C800081F0813091F08091E3030E947C0C0895E3
:102C90008430F9F08530B9F788E290E00E94210392
:102CA000F2CF82EE0E941605EECF8CE20E94610503
:102CB0008091E10381FFE7CF89E30E946105E3CFC3
:102CC00082EE0E9416058091E10380FDDCCF83E552
:102CD000F4CF88E2F2CF8F929F92AF92BF92EF92A1
:102CE000FF920F931F93CF93DF934B015C01D09121
:102CF000E2038CE1E82EF12C07E010E021E0D501A1
:102D0000C4010E2C04C0B695A795979587950A9493
:102D1000D2F7C82FCF70222339F0D43051F4CA3003
:102D200040F080E00E94B2158C2F0E94B21520E086
:102D300005C0C111F9CF04301105B4F301501109D8
:102D400084E0E81AF1080F3F1007C9F6DF91CF9130
:102D50001F910F91FF90EF90BF90AF909F908F9039
:102D60000895CF92DF92EF92FF926B017C01C11424
:102D7000D10481E1E806F104A0F5C114D10481E099
:102D8000E806F10420F08091E203823051F10E94C4
:102D9000E415C114D10481E0E806F10438F1809112
:102DA000E203811123C081E0E81AF108C701B601EE
:102DB0002AE096958795779567952A95D1F7785269
:102DC0008F4F9F4F0E946B1683E0D822EE24FF2482
:102DD000C701B60174528F4F9F4F0E946B160E941D
:102DE0003A16FF90EF90DF90CF900895C701B6019B
:102DF000F4CF0895FC01680F791F8FEF91E3E61778
:102E0000F70709F408952191822728E030E087FF31
:102E100006C0880F892721503109C9F7F0CF880FE4
:102E2000FACFCF93DF93EB0186319C4711F50E94D7
:102E30006C0C9D81992399F08A7A91E009F490E0D5
:102E40009093A103811109C089E20E94A41D0E94F0
:102E5000040D80E0DF91CF91089585E3F6CF809156
:102E6000A103811104C089E20E94AC1DF0CF85E36B
:102E7000FBCF81E0EFCFCF93DF93EC01FB018581A6
:102E8000882309F4D2C09E0130572332310508F05F
:102E9000B2C00E94830D9093CE038093CD03FE01B8
:102EA000E150F047E232F10520F4E65BF74D0C9477
:102EB0007B278091CD0381608093CD0393C0809167
:102EC000CE0388608093CE038DC08091CD03826055
:102ED000F3CF8091CD038460EFCF8091CD038860E4
:102EE000EBCF8091CE038160EDCF8091CE038260E5
:102EF000E9CF8091CD038061DFCF8091CD038062E7
:102F0000DBCF8091CD038064D7CF0E94CE07809124
:102F1000CD038068D1CF8091CD038C60CDCF8091DF
:102F2000CE038360CFCF8091CD038E7FC5CF8091BC
:102F3000CE03877FC7CF8091CD038D7FBDCF80919A
:102F4000CD038B7FB9CF8091CD03877FB5CF8091A3
:102F5000CE038E7FB7CF8091CE038D7FB3CF80918C
:102F6000CD038F7EA9CF8091CD038F7DA5CF80919A
:102F7000CD038F7BA1CF0E94CE078091CD038F77A9
:102F80009BCF8091CD03837F97CF8091CE038C7FA1
:102F900099CF8091CD0382FB992790F921E0922768
:102FA00090FB82F990FB83F987CF8091CE03982F15
:102FB000909591708E7F892B90FB81F983CF9091B2
:102FC000CD03892F8F7B96FF806476CF0E94CE073A
:102FD0009091CD03892F97FB87F980586DCF81E0C1
:102FE0000E941B0E8091CD039091CE030E94880D0C
:102FF0000E94CE0780E0DF91CF91089580E0F0CF6E
:103000009091CD03892F8F7E94FF806155CF909151
:10301000CD03892F8E7F90FF81604ECF9091CE039C
:10302000892F877F93FF88604DCF81E0E4CF282FE1
:1030300035EB2303C001112497FF04C08058910988
:10304000892F089580589F4FFBCF8091A80380FF60
:103050000DC06091600270E0660F771F60387105E7
:1030600070F56115710569F1862F089581FF07C01C
:103070006091600284E0689FB0011124EFCF6091FD
:10308000600282FD0AC08091A7038823A9F02091E5
:103090005F0260916002821710F088E0ECCF869F9B
:1030A000C001112433E0880F991F3A95E1F7622F90
:1030B00070E00E946727D2CF68E070E0D5CF8FE73D
:1030C000089581E008958091A80380FF0CC060916D
:1030D0005C0270E07595679575956795611571054A
:1030E00049F1862F089581FF06C060915C0270E06F
:1030F00075956795F3CF60915C0282FD0BC090914E
:10310000A6039923A1F060915B0280915C0296175F
:1031100038F0682F70E06038710500F38FE708958C
:10312000899FC001112470E00E946727F4CF61E0FD
:1031300070E0D7CF81E008959091AB032091AC036C
:10314000922B2091AE03922B2091AD03922B31F064
:1031500098E09093A70391E09093A6038D3C31F4FF
:103160000E94251881958093AC0308958E3C19F434
:103170000E942518F8CF8F3C31F40E9425188195C4
:103180008093AB030895803D19F40E942518F8CF71
:10319000893D29F40E9463188093AD0308958A3D08
:1031A00021F40E9463188195F7CF8B3D31F40E9482
:1031B000631881958093AE0308958C3D19F40E94A5
:1031C0006318F8CF9FE2980F983070F4815D990BE7
:1031D00021E030E001C0220F8A95EAF78091AA032E
:1031E000822B8093AA0308958D3D31F48091A8032A
:1031F00081608093A80308958E3D21F48091A803F7
:103200008260F7CF8F3DB9F78091A8038460F1CF3A
:103210004091AB038D3C59F48091AC0387FF0DC006
:103220001092AC0341110BC01092A70308C08E3C52
:1032300081F48091AC0318169CF3442381F08091B3
:10324000AD039091AE03892B09F05AC01092A603EA
:1032500008958F3C49F447FFF0CF1092AB03809163
:10326000AC038111ECCFE0CF803D19F41416ACF320
:10327000E4CF9091AD03893D29F41916F4F610922C
:10328000AD03DBCF8A3D19F497FFD7CFF8CF9091EC
:10329000AE038B3D29F497FFD0CF1092AE03CDCF74
:1032A0008C3D19F41916CCF3C8CF9FE2980F9830D3
:1032B00090F4815D990B21E030E0B90102C0660F06
:1032C000771F8A95E2F7CB0180959091AA03892315
:1032D0008093AA03B2CF8D3D31F48091A8038E7FF5
:1032E0008093A803AACF8E3D21F48091A8038D7FFF
:1032F000F7CF8F3D09F0A1CF8091A8038B7FF0CF4E
:1033000008950E94911E9C019091AB038091AC03A3
:10331000982B21F03093A5032093A4039091AD0343
:103320008091AE03982B21F03093A3032093A20346
:1033300089EA93E00E94FC1C089586E0E9EAF3E044
:10334000DF011D928A95E9F71092A7031092A60358
:103350001092A8030895FC01828181110EC083811F
:1033600081110BC08481811108C091E08581811198
:1033700001C090E0892F8170089581E0FCCFA6E024
:10338000B0E0E5ECF9E10C94902786E0E9EAF3E09F
:10339000DE01119601900D928A95E1F71092AB0330
:1033A0001092AC031092AD031092AE038B819C81FE
:1033B000892B89F08091A4039091A5030E94A91EF6
:1033C000AC019091A7039923C9F180916102841700
:1033D000150608F440C08D819E81892B91F0809163
:1033E000A2039091A3030E94A91EAC019091A60391
:1033F000992309F46AC080915D028417150608F4C8
:1034000072C0BE016F5F7F4F89EA93E00E94BF1DCB
:10341000811105C089EA93E00E94AB1981110E94D5
:10342000811986E0FE013196A9EAB3E001900D9280
:103430008A95E1F72696E3E00C94AC27209162028E
:103440008AE0289F900111242417350720F69F5FFA
:103450009093A70302C09F3FD1F71B81112359F01E
:103460000E9425189FEF11160CF491E0899F802D82
:1034700011248093AB031C81112359F00E9425185D
:103480009FEF11160CF491E0899F802D11248093F9
:10349000AC038091AB03882309F49DCF1091AC035A
:1034A000112309F498CF0E941718882351F08093B4
:1034B000AB03812F0E941718882329F08093AC0357
:1034C0008ACF81E0F4CF81E0F9CF20915E028AE0DB
:1034D000289F900111242417350708F092CF9F5F91
:1034E0009093A60302C09F3FD1F71D81112359F08D
:1034F0000E9463189FEF11160CF491E0899F802DB4
:1035000011248093AD031E81112359F00E9463188A
:103510009FEF11160CF491E0899F802D1124809368
:10352000AE038091AD03882309F46BCF1091AE03F5
:10353000112309F466CF0E941718882351F0809355
:10354000AD03812F0E941718882329F08093AE03C2
:1035500058CF81E0F4CF81E0F9CFB0E0A0E0E3EB19
:10356000FAE10C948C27E82FF0E0E457FD4FD4905B
:10357000282F26952695269530E0F901E45DFC4F2D
:103580000491877010E0082E02C0159507950A94E3
:10359000E2F701701127F901E45EFC4FE490F12C91
:1035A000082E02C0F594E7940A94E2F791E0E9222C
:1035B000FF24F901E45FFC4FC491D0E002C0D5952F
:1035C000C7958A95E2F7C170DD270115110519F03D
:1035D00081EE0E94CD04E114F10419F086EE0E9400
:1035E000CD048D2D0E946105E114F10419F086EEE1
:1035F0000E9416050115110519F081EE0E941605AD
:10360000CD2B19F08CE20E946105CDB7DEB7E7E063
:103610000C94A827982F9F709A50963020F0805DC8
:103620000E94AD1A0895895AFBCF0F931F93CF9331
:10363000DF93C42FD22FFC0185818823C9F04093EA
:10364000B1030E94911E9093B0038093AF0380E278
:103650008C0F883040F4C77081E001C0880FCA9594
:10366000EAF70E946A05DF91CF911F910F910895AB
:103670001091B103141332C08091AF039091B00345
:103680000E94A91E8A3F910548F5C0E2CD0F1D1783
:10369000B9F080E2810F883040F4177081E001C0FA
:1036A000880F1A95EAF70E947105C83048F481E046
:1036B0009D2F977001C0880F9A95EAF70E946A05BE
:1036C000802F0E946105C83070F6D77081E001C07C
:1036D000880FDA95EAF70E947105C5CF80E28C0F5A
:1036E000883008F6C77081E001C0880FCA95EAF7F4
:1036F000F2CF0F93DB0188519C4787309105A0F5ED
:10370000FC01E459F74D0C947B2706E221EE41EED3
:103710006AE17CE7CD010E94151B80E00F910895BE
:1037200007E225EE45EE6BE17CE7F4CF06E221EE01
:1037300040EE68E17CE7EECF07E225EE44EE69E17A
:103740007CE7E8CF06E221EE42EE6CE17CE7E2CFD7
:1037500007E225EE46EE6DE17CE7DCCF08E221E0F2
:1037600045EE6EE17CE7D6CF15968C91882319F053
:103770001092B103D3CF81E0D1CF4115510511F0A3
:10378000FA0109950895CF93DF93EC014A855B8593
:103790006E857F850E94BD1B8B810E948B0C8C8166
:1037A0000E94750C0E94040D86E0FE0111928A951C
:1037B000E9F7DF91CF910895CF93DF93EC018D81ED
:1037C00081FD11C082608D838B810E94850C8C816C
:1037D0000E946F0C0E94040D488559856E857F8577
:1037E000CE010E94BD1B1092B5031092B4038D81CF
:1037F00080FD03C0CE010E94C31BDF91CF910895CD
:10380000CF93DF93EC018A81823041F4FB01828106
:1038100093810E94DB028D8182608D83DF91CF9145
:103820000895FB01808191810E94DB020895FC01D3
:103830008281813031F4FB01808191810E94F1020B
:1038400008958230E9F7FB0182819381F7CFCF930E
:10385000FB01C581CC23F1F0E091B403F091B503F5
:103860003097D9F0E817F907C1F0FF2724E0EE0FF1
:10387000FF1F2A95E1F7DF01AB5FBE4F2C9124605B
:103880002C93E050FF4F91838083CF010E94DC1B7B
:103890000E94920C8C2FCF910895C0E0FBCF0F9324
:1038A0001F93CF93DF938C0197558F3F910509F0BC
:1038B000C8F5C801992724E0880F991F2A95E1F7D8
:1038C000EC01C050DF4FFB012581FC01EB5FFE4F97
:1038D000808120FB80F98083222351F10E94911E78
:1038E0009093B3038093B2038A818F5F8A830E948F
:1038F0006C0C8B830E94820C9B81892B8B830E9492
:10390000950C8C834E815F816E857F85CE010E94F0
:10391000BD1B8D8181FF02C010E000E01093B50354
:103920000093B40381E0DF91CF911F910F9108952F
:103930004C855D856E857F85CE010E94BD1B8D8186
:1039400081FFF0CFCE010E94C31B8091B403909100
:10395000B5038017910731F71092B5031092B403A5
:10396000E1CF8091B4039091B503892BE9F0809168
:10397000B2039091B3030E94A91E8B3F9105A0F062
:103980008091B4039091B503992724E0880F991F83
:103990002A95E1F7FC01EB5FFE4F208122FD04C078
:1039A00080509F4F0E94DC1B08959093BC0380932E
:1039B000BB0308950E945F13811103C08091B60379
:1039C0000895E091BB03F091BC03309729F001907A
:1039D000F081E02D0995089580E008950E94DA1C99
:1039E0000895E091BB03F091BC03309721F0028071
:1039F000F381E02D09950895E091BB03F091BC039C
:103A0000309739F022E0DC012C930680F781E02D1D
:103A100009950895A3E0B0E0E0E1FDE10C94912761
:103A20002091B9033091BA0328173907A1F0909378
:103A3000BA038093B903E091BB03F091BC033097C4
:103A400051F023E029839B838A830084F185E02D54
:103A5000CE01019609952396E2E00C94AD27A3E0F0
:103A6000B0E0E5E3FDE10C9491272091B70330919C
:103A7000B80328173907A1F09093B8038093B703D0
:103A8000E091BB03F091BC03309751F024E029830F
:103A90009B838A830084F185E02DCE0101960995F0
:103AA0002396E2E00C94AD2740912C0250912D0218
:103AB0009A012E5F3F4F485F5F4F80E02417350724
:103AC00009F40895F90191919F019923B9F38F5F4A
:103AD000F5CF882371F020912C0230912D02F9014D
:103AE0003296285F3F4F9191981729F0E217F3071C
:103AF000D1F780E0089581E008959C01FC013296A1
:103B00009FEF80E04191461751F09F3F19F441111A
:103B100001C0982F8F5F8630A9F79F3F09F4089561
:103B2000290F311D97FD3A95F90162830895FC0133
:103B3000329608962191261303C0DF0111971C923B
:103B4000E817F907B9F70895682F80912C02909132
:103B50002D020E947D1D0895682F80912C02909166
:103B60002D020E94971D0895E0912C02F0912D02E4
:103B7000329686E0DF011D928A95E9F70895DC010F
:103B8000FB0111969C9111978181981322C0129686
:103B90008C911297882319F0928189131AC0139679
:103BA0008C911397882319F09381891312C015966D
:103BB0008C911597882319F0958189130AC0149662
:103BC0009C91992321F081E02481291303C080E096
:103BD00001C081E08170089508950E94EC1D089550
:103BE000811106C081E08093BD030E94ED1D089500
:103BF00082E0F9CF83E08093BD030E94ED1D08951C
:103C00000E94F01D089581E08093BD030E94ED1D88
:103C100008950E94031E0895089508950E940D1EA0
:103C20000895089508950E940C1E0895CF930E9450
:103C3000111E0E94D0120E94121EC0E08C2F0E9402
:103C4000B111811105C0CF5FC830C1F7CF91089580
:103C500081E0FCCF85B7806885BF85B7806885BF68
:103C600008951F921FB61F9211248F939F93AF93B5
:103C7000BF938091BE03811113C08091E4039091A2
:103C8000E503A091E603B091E7034196A11DB11DA4
:103C90008093E4039093E503A093E603B093E703D6
:103CA000BF91AF919F918F911F901FBE1F9018954C
:103CB0008091EC03843031F10E941D041092BE0308
:103CC00088E190E020E40FB6F894A8958093600016
:103CD0000FBE2093600083B7817F846083BF83B76A
:103CE000816083BF7894889583B78E7F83BF0FB63A
:103CF000F894A8958091600088618093600010928C
:103D000060000FBE08950E94CE070E94220408950D
:103D100082E084BD93E095BD9AEF97BD80936E00DD
:103D200008952FB7F8948091E4039091E503A09152
:103D3000E603B091E7032FBF08952FB7F894609181
:103D4000E4037091E5038091E6039091E7032FBFB0
:103D500008959C014FB7F8948091E4039091E50396
:103D6000A091E603B091E7034FBF821B930B089528
:103D7000CF92DF92EF92FF922FB7F894C090E403B6
:103D8000D090E503E090E603F090E7032FBFA70192
:103D90009601261B370B480B590BCA01B901FF903E
:103DA000EF90DF90CF90089578941F921FB61F92E6
:103DB00011248F939F93AF93BF938091E4039091CD
:103DC000E503A091E603B091E7030196A11DB11DA3
:103DD0008093E4039093E503A093E603B093E70395
:103DE000BF91AF919F918F911F901FBE1F9018950B
:103DF00087E797E7909301088093000888E19AE0AD
:103E00000FB6F894A895809360000FBE9093600061
:103E1000FFCF88E19AE00FB6F894A89580936000F0
:103E20000FBE90936000FFCF8EE14A9B02C081508D
:103E3000E1F74A9BFECF08955A9880E28A95F1F700
:103E40005A9A0895FC013BE03A95F1F798E020E09A
:103E500080E031E040E14A95F1F7880F4A9B02C0CB
:103E60008160232742E04A95F1F7000040E14A953E
:103E7000F1F7915079F790E19A95F1F799B132E025
:103E80003A95F1F7000040E14A95F1F792FB992746
:103E900090F992272081920F90830895A1E0B0E0DD
:103EA000E4E5FFE10C948D2719828C017C01E60E7C
:103EB000F11C0E151F0541F481E09981911180E0FC
:103EC0002196E6E00C94A9270E94141FCE010196CA
:103ED0000E94221FF80181938F01EBCF529A5A9AC8
:103EE000089552985A9AEA9AE9E6F0E080818F7C28
:103EF000808308956150770B91E001C0990F6A9516
:103F0000EAF720E031E0911108C0222391F05A9A9B
:103F100080E28A95F1F75A980895492F482339F09D
:103F20005A9A232740E24A95F1F79695ECCF5A9892
:103F3000F9CF5A98EDCFFF920F931F93CF93DF9352
:103F4000EC018C01060F111DC017D10729F4CDB764
:103F5000DEB7E5E00C94AA27F9900E941C1F68E0E8
:103F60008F2D0E947A1FF0CF1F920F920FB60F92E3
:103F700011240F931F932F933F934F935F936F934E
:103F80007F938F939F93AF93BF93EF93FF93CF93C1
:103F9000DF930F92CDB7DEB719820E94141FCE01B6
:103FA00001960E94221F082F069506950695282F38
:103FB00022952570902F9570290F922F937026953A
:103FC0002695920F982797708981982B09F05CC0ED
:103FD000043008F059C080E18A95F1F75A9A529A54
:103FE00082E08A95F1F700C05A9888E0089F800126
:103FF0001124D801AD5BBD4F1696ED91FC9117973A
:104000003097A9F06091F4027091F50214962D9109
:104010003C911597260F371F11968D919C91129701
:10402000680F791F13964C9113978C910995F8019D
:10403000ED5BFD4F6381662351F02091F4023091D6
:10404000F50284819581820F931F0E949B1F0E941D
:104050001C1F80E18A95F1F75A9852985A9A80E18C
:104060008A95F1F7F801ED5BFD4F6081662351F011
:104070002091F4023091F50281819281820F931F89
:104080000E944E1F0E94141F0F90DF91CF91FF914D
:10409000EF91BF91AF919F918F917F916F915F91C0
:1040A0004F913F912F911F910F910F900FBE0F9045
:1040B0001F9018950F931F93CF93DF93EC010497F4
:1040C0000CF04CC0F894529A5A9885E08A95F1F712
:1040D00000009C2F969595708C2F8570980F892FD6
:1040E00083709695969523E0CC0FDD1F2A95E1F716
:1040F000980F8E01092B0E941C1F00C068E0802FC2
:104100000E947A1F80E18A95F1F752985A9A4A9B49
:104110001EC087E090E04A991CC0FE01ED5BFD4F98
:1041200063816623F9F02091F4023091F5028481D5
:104130009581820F931F0E944E1F811113C0529AC6
:104140005A9A7894DF91CF911F910F91089500C0F2
:10415000DECF019729F4529A5A9A789480E0F2CFF0
:1041600000C0D9CF0E94141F80E28A95F1F75A98B7
:10417000529A80E18A95F1F7CD5BDD4F6881662325
:1041800051F02091F4023091F50289819A81820FD9
:10419000931F0E949B1F0E941C1F789481E0D2CF26
:1041A0008091C703089508959B01BA019091EC0393
:1041B0009430E9F48F708093E9009FEF8091E800DC
:1041C000915085FD06C085ED8A95F1F700009111AB
:1041D000F5CF8091E80085FF0AC050E040E0C901BA
:1041E0000E94CE228091E8008E778093E8000895A7
:1041F00043E050E0BC0182E00E94D420089546E0F4
:1042000050E0BC0182E00E94D4200895CF93DF9358
:10421000EC0148E050E0BC0181E00E94D42088E03D
:10422000FE01AFEBB3E001900D928A95E1F7DF91CB
:10423000CF9108958091EB03811109C00E945E2403
:104240000E94BB248091E20084608093E200089584
:104250001092EB0308950E94031E08956091E803F5
:1042600081E0611101C080E00E94FA1D08959091E3
:10427000EC0381E0943009F080E06091E8030E9453
:10428000001E089542E061EC81E00E94DA2342E2E0
:1042900061EC82E00E94DA239091EC0381E094309B
:1042A00009F080E06091E8030E94F01D089580917C
:1042B000EE03833009F461C030F48130D1F18230F3
:1042C00009F49EC008958A3009F48AC08B3009F43D
:1042D0006FC0893009F050C08091ED03813209F040
:1042E0004BC08091F1039091F203029708F044C013
:1042F0008091E800877F8093E8008091E80082FF4A
:1043000037C09091F3008091F200029731F48091D0
:10431000F100813011F0863021F48091F10080931A
:10432000C7038091E8008B778093E8000E940E24F9
:1043300023C08091ED03813AF9F48091E800877FF2
:104340008093E8008091F1039091F203892B61F44E
:1043500068E08FEB93E070E00E941D238091E800FD
:104360008B778093E800089560E090E080E0F3CFE1
:104370008091EC038111C1CF08958091ED03813AC2
:10438000D9F78091F1039091F203892BA9F78091DD
:10439000E800877F8093E8008091E80080FFFCCFF1
:1043A00080916D028093F1008091E8008E77BCCF00
:1043B0008091ED03813201F78091F1039091F20336
:1043C000892BD1F68091E800877F8093E8000E94D6
:1043D0000E248091EF0380936D020E94CE07089512
:1043E0008091ED03813241F68091E800877F8093D0
:1043F000E8000E940E248091F0038093C803089582
:104400008091ED03813A09F0B7CF8091E800877F72
:104410008093E8008091E80080FFFCCF8091C80382
:10442000C1CF84B7877F84BF0FB6F894A8958091D9
:104430006000886180936000109260000FBE80E889
:1044400090E00FB6F89480936100909361000FBEE6
:104450000E94091E08950E945E240E94BB24E2EE81
:10446000F0E080818460808378940E943A270895E8
:1044700083E692E00E94D51C08958091EC0385307C
:1044800031F48091EC03853019F00E94831E089569
:104490000E94581E8091EA03882399F30E94161EF9
:1044A000882379F30E94B8220E94CE07EACF0895AC
:1044B0009A014091F3035091F4030E946022089501
:1044C000492F55274330510519F168F44130510502
:1044D00009F444C04230510509F445C090E080E041
:1044E00050E040E025C04132510549F142325105CA
:1044F000A9F784E490E04EE254E061157105C1F043
:104500008BE790E043EB53E06130710589F0E6CF33
:1045100099278130910581F0009729F00297F1F6F3
:10452000ECE3F3E002C0E2E6F3E0849190E0AF0157
:10453000F901518340830895E8E5F3E0F6CF89E07F
:1045400090E048E753E06115710591F389E090E050
:1045500041E953E06130710559F3C0CF82E190E049
:1045600041EA53E0E5CF8BE390E046E653E0E0CF4D
:1045700080E189BD82E189BD09B400FEFDCF809153
:10458000D8008F7D8093D8008091E0008260809376
:10459000E0008091E00081FDFCCF0895AF92BF92D2
:1045A000CF92DF92FF920F931F93CF93DF936C0113
:1045B000EB018A010E942D24F82E811123C00115E0
:1045C000110539F0F80180819181C81BD90BC80E03
:1045D000D91EB12CA12C2097A9F08091E80085FD6F
:1045E00022C08091E8008E778093E80001151105C4
:1045F000A1F0F80180819181A80EB91EB182A0823C
:1046000085E0F82E8F2DDF91CF911F910F91FF90B4
:10461000DF90CF90BF90AF9008950E942D24882303
:10462000D1F2F82EEFCFF60181916F018093F10066
:104630002197FFEFAF1ABF0ACECFFC018091F303A1
:104640009091F40386179707A0F06115710529F47E
:104650009091E8009E779093E80090E061157105D5
:1046600051F4911108C08091E80082FF34C080E0CD
:104670000895BC01F2CF8091EC038823C1F185300D
:10468000C1F18091E80083FD30C08091E80082FD97
:10469000EACF8091E80080FFE1CF8091F300209184
:1046A000F200382F6115710519F02830310558F0E6
:1046B00091E02830310509F090E02091E8002E7754
:1046C0002093E800CBCF81918093F1006150710974
:1046D0002F5F3F4FE7CF8091EC03882341F0853077
:1046E00041F08091E80083FFBECF81E0089582E031
:1046F000089583E00895FC018091F3039091F40301
:1047000086179707A0F06115710529F48091E800DC
:104710008E778093E80090E06115710551F4911156
:1047200008C08091E80082FF35C080E00895BC0198
:10473000F2CF8091EC038823C9F18530C9F18091D3
:10474000E80083FD31C08091E80082FDEACF8091CE
:10475000E80080FFE1CF8091F3002091F200382F34
:104760006115710519F02830310558F091E02830B5
:10477000310509F090E08091E8008E778093E800A1
:10478000CBCF84918093F1003196615071092F5FF6
:104790003F4FE6CF8091EC03882341F0853041F014
:1047A0008091E80083FFBDCF81E0089582E0089505
:1047B00083E00895982F973028F08F708093E90058
:1047C00081E008959093E900242F762F50E0981708
:1047D00031F07091EC002091ED005091F00021FD3E
:1047E00002C09F5FE8CF3091EB003E7F3093EB003B
:1047F0003091ED003D7F3093ED003091EB00316062
:104800003093EB007093EC002093ED005093F00098
:104810002091EE0027FDE5CF80E008958091ED0323
:1048200087FF13C08091E80082FF06C08091E800F6
:104830008B778093E80004C08091EC038111F2CF64
:1048400008958091EC038823D9F38091E80080FFDC
:10485000F8CF8091E8008E77ECCF2091E400309182
:10486000E50095E6A9012091EC00822F817020FFE0
:1048700006C08091E80080FF06C080E00895209186
:10488000E80022FD1AC08091EC03882389F085306E
:1048900089F08091EB0085FD0FC02091E4003091FC
:1048A000E50042175307F9F29150E1F684E00895CC
:1048B00082E0089583E0089581E008950E94CD2468
:1048C0000E94D524E0EEF0E0808181608083E8EDF5
:1048D000F0E080818F77808319BCA7EDB0E08C91E8
:1048E0008E7F8C9380818F7E80831092EB0308955E
:1048F0000F931F93CF93DF930E94CD240E94D52462
:10490000C8EDD0E088818F7788838881806888832C
:1049100088818F7D888319BC1092EC031092E80384
:104920001092EA031092E90300EE10E0F801808192
:104930008B7F808388818160888342E060E080E0B3
:104940000E94DA23E1EEF0E080818E7F8083E2EE48
:10495000F0E0808181608083808188608083F801BD
:1049600080818E7F8083888180618883DF91CF9171
:104970001F910F910895E8EDF0E080818F7E808394
:10498000E7EDF0E080818160808384E082BF81E098
:104990008093EB030E9478240895E8EDF0E0808195
:1049A0008E7F80831092E20008951092DA001092B8
:1049B000E10008951F920F920FB60F9211242F93CA
:1049C0003F934F935F936F937F938F939F93AF9397
:1049D000BF93EF93FF938091E10082FF0BC0809122
:1049E000E20082FF07C08091E1008B7F8093E100AD
:1049F0000E9439278091DA0080FF19C08091D80089
:104A000080FF15C08091DA008E7F8093DA0080915C
:104A1000D90080FF96C080E189BD82E189BD09B4DB
:104A200000FEFDCF81E08093EC030E941A2180916B
:104A3000E10080FF19C08091E20080FF15C08091E5
:104A4000E2008E7F8093E2008091E200806180939B
:104A5000E2008091D80080628093D80019BC85E084
:104A60008093EC030E942E218091E10084FF2BC0F3
:104A70008091E20084FF27C080E189BD82E189BD89
:104A800089B5982F917080FFFBCF8091D8008F7DE2
:104A90008093D8008091E1008F7E8093E100809127
:104AA000E2008F7E8093E2008091E200816080933B
:104AB000E2008091E803882309F449C084E08093F0
:104AC000EC030E9437218091E10083FF29C080918F
:104AD000E20083FF25C08091E100877F8093E100A1
:104AE00082E08093EC031092E8038091E1008E7FD6
:104AF0008093E1008091E2008E7F8093E2008091BC
:104B0000E20080618093E20042E060E080E00E9489
:104B1000DA238091F00088608093F0000E942B21BE
:104B2000FF91EF91BF91AF919F918F917F916F9185
:104B30005F914F913F912F910F900FBE0F901F905B
:104B4000189519BC1092EC030E94282170CF809117
:104B5000E30087FD93E09093EC03B3CF1F920F9295
:104B60000FB60F9211242F933F934F935F936F9340
:104B70007F938F939F93AF93BF93CF93DF93EF93E5
:104B8000FF93D091E900DF708091EC00C82FC170D5
:104B900080FDC0E81092E9008091F000877F80934B
:104BA000F00078940E94F2251092E9008091F000C4
:104BB00088608093F000CD2BCF70C093E900FF9107
:104BC000EF91DF91CF91BF91AF919F918F917F91A5
:104BD0006F915F914F913F912F910F900FBE0F906A
:104BE0001F901895AAE2B0E0E8EFF5E20C94902748
:104BF0008DEE93E02091F100FC012193CF01F3E0D1
:104C0000853F9F07B9F70E9457218091E80083FFF5
:104C10001EC18091ED039091EE039A3008F017C108
:104C2000E92FF0E0ED58F74D0C947B27803899F090
:104C3000823809F00CC18091F1038F70873008F041
:104C400006C18093E9008091EB0085FB882780F9FD
:104C50001092E90006C08091E9039091EA03911156
:104C600082609091E800977F9093E8008093F10034
:104C70001092F1008091E8008E77E5C0882309F456
:104C8000D3C0823009F0E3C08091EF038111D6C018
:104C90008091F1038F702FEF280F263008F0D7C0D6
:104CA0008093E9002091EB0020FFC8C0933031F4DD
:104CB0008091EB0080628093EB00C0C09091EB008C
:104CC00090619093EB0021E030E001C0220F8A95C3
:104CD000EAF72093EA001092EA008091EB008860E6
:104CE000EACF8111B4C01091EF031F778091E300E8
:104CF0008078812B8093E3008091E800877F809308
:104D0000E8000E940E248091E80080FFFCCF809193
:104D1000E30080688093E30082E0111183E08093D8
:104D2000EC0395C08058823008F091C08091EF0369
:104D30009091F0038C3D23E09207A1F583E08A83F4
:104D40008AE289834FB7F894DE01139620E03EE0B3
:104D500051E2E32FF0E050935700E49120FF03C0AD
:104D6000E295EF703F5FEF708E2F90E0EA30C0F079
:104D7000C7968D939D932F5F243159F74FBF809134
:104D8000E800877F8093E8006AE270E0CE01019638
:104D90000E941D238091E8008B778093E80057C024
:104DA000C096E7CF6091F1037091F203AE014F5FBF
:104DB0005F4F0E945822BC01892B09F448C0909192
:104DC000E800977F9093E80089819A810E947B2375
:104DD000E1CF8038E1F58091E800877F8093E8009B
:104DE0008091E8038093F10045CF811130C090910C
:104DF000EF03923060F58091E800877F8093E800B0
:104E00009093E8030E940E248091E803882311F018
:104E100084E005C08091E30087FDFACF81E08093B4
:104E2000EC030E94422113C08091EF03813079F49A
:104E300081E0933009F080E08093EA031092E9006A
:104E40008091E800877F8093E8000E940E24809183
:104E5000E80083FF0AC08091E800877F8093E80024
:104E60008091EB0080628093EB00AA96E3E00C94C3
:104E7000AC270895CF938091EC038823A1F0C091D3
:104E8000E900CF709091EC00892F817090FD80E84F
:104E9000C82B1092E9008091E80083FD0E94F22562
:104EA000CF70C093E900CF9108950E945E241092C4
:104EB000EC030895E8EDF0E08081806180838AE171
:104EC0008A95F1F700C08091D9008170089597FB11
:104ED000072E16F4009407D077FD09D00E94B8275A
:104EE00007FC05D03EF4909581959F4F08957095ED
:104EF00061957F4F0895EE0FFF1F0590F491E02D0F
:104F000009942F923F924F925F926F927F928F926D
:104F10009F92AF92BF92CF92DF92EF92FF920F9348
:104F20001F93CF93DF93CDB7DEB7CA1BDB0B0FB652
:104F3000F894DEBF0FBECDBF09942A88398848880F
:104F40005F846E847D848C849B84AA84B984C884A5
:104F5000DF80EE80FD800C811B81AA81B981CE0F9C
:104F6000D11D0FB6F894DEBF0FBECDBFED01089581
:104F7000AA1BBB1B51E107C0AA1FBB1FA617B7077F
:104F800010F0A61BB70B881F991F5A95A9F780959B
:104F90009095BC01CD010895FB01DC0104C08D9109
:104FA0000190801921F441505040C8F7881B990B9B
:104FB0000895FB01DC0102C001900D924150504068
:104FC000D8F70895F999FECF92BD81BDF89A992737
:104FD00080B50895A8E1B0E042E050E00C942628A6
:104FE000DC01A40FB51F4150504048F0CB01840FA5
:104FF000951F2E910E94012841505040D0F70895EE
:10500000262FF999FECF92BD81BDF89A019700B481
:10501000021639F01FBA20BD0FB6F894FA9AF99A21
:105020000FBE08950396272F0E9401280E94002892
:10503000252F0E940128242F0C9401280196272F48
:105040000E9401280C940028DC01CB01FC01F99995
:10505000FECF06C0F2BDE1BDF89A319600B40D92C4
:1050600041505040B8F70895F894FFCFB905B905FD
:10507000090609066E068A06E805E8058F06000798
:105080000F070F0792159F15A415A815AA15AC15A3
:10509000AE15B015931707189B17651769179F175B
:1050A0006D17A317AF17791700187D17B31781175E
:1050B000B717DF178517BB17E6178B17C117C91767
:1050C0007117A7177517AB178F17C517D517EF17D8
:1050D000FE175F1797170E18961B9C1B851B901BBE
:1050E000A21BA81BAE1B16263E2627273E262727D7
:0A50F000712692262727E926F526EF
:1050FA00000000000000001C111C171C0000280200
:10510A00000000000000001C111C171C00002402F3
:10511A00000000000000001C111C171C00002002E7
:10512A00000000000000001C111C171C00001C02DB
:10513A00000000000000001C111C171C00001802CF
:10514A00000000000000001C111C171C00001402C3
:10515A00000000000000001C111C171C00001002B7
:10516A00000000000000001C111C171C00000C02AB
:10517A00000000000000001C111C171C000008029F
:10518A00000000000000001C111C171C0000040293
:10519A00000000000000001C111C171C0000000287
:1051AA00000000000000001C111C171C0000FC017C
:1051BA00000000000000001C111C171C0000F80170
:1051CA00000000000000001C111C171C0000F40164
:1051DA00000000000000001C111C171C0000F00158
:1051EA00E5003900E100390037003702360036029F
:1051FA0038003802330033023400340235003502F5
:10520A00310031022D022D002E022E002E002E0218
:10521A00300030022F002F02140029006203C6F763
:10522A00F6F5F4313332369391909466973435FF1C
:10523A00FFFF01000000010000000000000004015F
:10524A000000000405000000000000280850011EAC
:10525A000A1401D0200621D320FF20F82001F4F5FA
:10526A00F6F7C6933632333197669490913534FF08
:10527A00FFFFE200E900EA00B500B600B700CD0082
:10528A008301CC008A0192019401210223022402A3
:10529A002502260227022A02B300B4006F0070001A
:1052AA009F01CB019F02A002818283E200E900EA0A
:1052BA0000B500B600B700CD008301CC008A019288
:1052CA000194012102230224022502260227022A2E
:1052DA0002B300B4006F0070009F01CB019F02A0CF
:0652EA00028182838803AB
:00000001FF
