:100000000C94F9020C9416030C9416030C9416032A
:100010000C9416030C9416030C9416030C941603FC
:100020000C9416030C9416030C9437280C940B298B
:100030000C9466230C9416030C9416030C9416036C
:100040000C9416030C9416030C9416030C941603CC
:100050000C9416030C94ED230C9416030C941603C5
:100060000C9416030C9416030C9416030C941603AC
:100070000C9416030C9416030C9416030C9416039C
:100080000C9416030C9416030C9416030C9416038C
:100090000C9416030C9416030C9416030C9416037C
:1000A0000C9416030C9416030C94160329431400A5
:1000B0001A000800150017002B2104001600070085
:1000C00009000A000D571D001B000600190005005D
:1000D0001C0018000C00120013002A000B000D0079
:1000E0000E000F003300280011001000360037000A
:1000F00038000E57E20022522C002152E600000088
:1001000007571E021F022002210222022B000000BC
:1001100000000000000000000D570000000000007B
:1001200000000000230224022502260227022A00E2
:10013000015702570657085709570000055703573C
:100140000B570C570A570E57010024522C00010080
:100150000100000029001E001F00200021002200D5
:100160002B003A003B003C003D003E000000000038
:1001700000000000000000002300240025002600ED
:1001800027002A003F0040004100420043000000D9
:1001900000003E003600370038000000010001007A
:1001A0002C0024520100000001000000000050015A
:1001B0004F010000E000000000000000000000000F
:1001C000E1000000000000000000000000004A0004
:1001D00000004D0000002A005000510052004F0066
:1001E0000000000000003E000000000000000000D1
:1001F000010000002C000000E600000000000000EC
:100200000000000000002B782078237825782778DC
:10021000000000002178247826782878000000006B
:1002200000000000000000000000000000000000CE
:1002300000000000000000000000000000000000BE
:1002400000000000E60001002C0001000100000099
:1002500029000000000050014F01000001000000D3
:10026000E200E000E1000000E10050014F01000069
:10027000000000004A004D000000000000002A00BD
:100280005000510052004F000000280000003E00C6
:100290000000000000000000E00000002C00000052
:1002A000E20000001E0F0500047F3F1F643214644B
:1002B0003214783C1E1E140A052223252628292ADA
:1002C0002C2D2F3032333536383A3B3D3E404243B9
:1002D0004547494A4C4E5051535557595A5C5E60F8
:1002E00062646668696B6D6F71737577797B7D7F0A
:1002F00081838587898A8C8E90929496989A9C9E09
:100300009FA1A3A5A7A8AAACAEAFB1B3B4B6B8B924
:10031000BBBCBEBFC1C2C3C5C6C7C9CACBCCCDCE8C
:10032000D0D1D2D2D3D4D5D6D7D7D8D9D9DADADB6F
:10033000DBDBDCDCDCDCDCDDDDDDDDDCDCDCDCDCFB
:10034000DBDBDBDADAD9D9D8D7D7D6D5D4D3D2D23A
:10035000D1D0CECDCCCBCAC9C7C6C5C3C2C1BFBE22
:10036000BCBBB9B8B6B4B3B1AFAEACAAA8A7A5A38D
:10037000A19F9E9C9A98969492908E8C8A8987854C
:1003800083817F7D7B79777573716F6D6B6968662B
:100390006462605E5C5A5957555351504E4C4A49FD
:1003A00047454342403E3D3B3A3836353332302FA5
:1003B0002D2C2A292826252322FFAA7F554000011B
:1003C0000101010101010101020202020202020215
:1003D00002030303030303030304040404040404E7
:1003E00005050505050606060606070707070708AB
:1003F000080808090909090A0A0A0B0B0B0C0C0C5E
:100400000D0D0D0E0E0E0F0F0F10101111111212F7
:1004100013131414151516161717181819191A1A74
:100420001B1B1C1D1D1E1E1F2020212222232424D5
:10043000252626272829292A2B2C2D2D2E2F303111
:100440003232333435363738393A3B3C3D3E3F4023
:100450004142434445464748494A4C4D4E4F50510E
:100460005354555658595A5B5D5E5F6162646566C8
:1004700068696B6C6D6F7072737577787A7B7D7E4F
:100480008082838587888A8C8E8F91939596989A9F
:100490009C9EA0A2A3A5A7A9ABADAFB1B3B5B7BAB7
:1004A000BCBEC0C2C4C6C9CBCDCFD1D4D6D8DBDD8B
:1004B000DFE2E4E7E9EBEEF0F3F5F8FAFDFF140311
:1004C000720065007600690075006E0067003400F8
:1004D000310000000C0367007400690070007300B5
:1004E00000000403090409023B00020100A0FA090C
:1004F000040000010301010009211101000122444F
:100500000007058103080001090401000103000040
:1005100000092111010001227B0007058203200050
:100520000112010002000000080778CBDC01000185
:1005300002000105010902A10185020901A10005CE
:100540000919012908150025019508750181020581
:1005500001093009311581257F9502750881060949
:10056000381581257F950175088106050C0A38022A
:100570001581257F950175088106C0C00501098098
:10058000A101850319012AB700150126B7009501BD
:1005900075108100C0050C0901A101850419012A0B
:1005A000A002150126A002950175108100C0050169
:1005B0000906A101050719E029E71500250195089D
:1005C000750181029501750881010507190029FF50
:1005D000150026FF009506750881000508190129F8
:1005E0000515002501950575019102950175039189
:1005F00001C011241FBECFEFDAE0DEBFCDBF12E095
:10060000A0E0B1E0ECE0FAE502C005900D92AE3F4B
:10061000B107D9F724E0AEEFB2E001C01D92A335D7
:10062000B207E1F70E94F5130C94B02C0C94000073
:10063000EF92FF921F93CF93DF93EC017B010E9417
:10064000232281FB112710F90E94E90D80930804F1
:10065000C933D10509F444C020F4AA9799F0C1E048
:1006600025C0CD3087E5D80719F0CE30D745B9F78A
:10067000F7018581882359F14FEF6FEF85E50E94DF
:100680000A17EDCFF701C581CC23B9F0827271F062
:1006900082E20E94F20D8CE40E94DE0581E08093EC
:1006A0000003809108040E94F90DC0E08C2FDF91B7
:1006B000CF911F91FF90EF900895809100038823C0
:1006C00071F28CE40E946C0610920003EFCF1111BE
:1006D000D3CF80E00E94C50940E060E080E0CFCF4A
:1006E000112309F4BCCFC8CF40E060E080E00E9455
:1006F0000A170895CF93DF93EC010E9438058230EA
:10070000F9F038F4882311F0813061F040E060E0C6
:1007100019C08430D9F0C0F08530C1F740E86FEFE0
:1007200080E803C04FEF6FEF8AEA0E940A1724E0C7
:1007300041E062E0CE010E94F70ADF91CF91089577
:100740004FEF6FEF80E0F1CF4FEFE1CF4FEF6FEF63
:1007500085EDEBCF8630B8F46730A8F4463098F4D6
:1007600050E096E0699F400D511D1124FA019AE274
:10077000899FE00DF11D1124EE0FFF1FE455FF4F7F
:1007800085919491089581E090E008950E94AA03D4
:1007900008959C013A9521153F4150F5FC01EE2743
:1007A000F170BC0166277270AC01442754709C0143
:1007B0002227387094FF0EC080E1EF2B09F480E00F
:1007C000672B09F08062452B09F08064232B89F0A8
:1007D0008068089581E0EF2B09F480E0672B09F031
:1007E0008260452B09F08460232B19F088600895FE
:1007F00080E00895CF93DF93EB010E94C903FE01CF
:100800000995DF91CF910895CF93DF93EC01805E3E
:100810009109089720F067E279E0209711F467EEDC
:1008200076E0CE010E94FA038C2F0E94DE05DF9154
:10083000CF910895CF93DF93EC010E946C06CE0117
:10084000805E9109089720F06EE279E0209711F41C
:100850006EEE76E0CE010E94FA03DF91CF9108950B
:1008600081E008950E943004089581E008950E9477
:100870001803089508950E943A040895A6E0B0E090
:10088000E4E4F4E00C945C2B49835A839E8330911A
:10089000060389819A8131111AC03E81332399F070
:1008A000222389F00E94970A182F682F89819A8144
:1008B0000E94730A69817A81812F0E948C11269689
:1008C000E3E00C94782B0E94850A182FF3CF0E9446
:1008D000970A69817A81F1CFFC01262F40815181ED
:1008E00062817381848195810E943E040895CF9333
:1008F000DF93EC0161E00E946C04BE010E943204AF
:10090000DF91CF910895CF93DF93EC0160E00E94D7
:100910006C04BE010E943B04DF91CF91089581E0F9
:1009200008950E948F040895CF93C82F0E944B0909
:100930008C2F0E9491042FEF84E39CE02150804093
:100940009040E1F700C00000CF91089581E00E943F
:1009500094040E941124089580E00E9494040E944F
:10096000222408950F931F93CF93DF938C0161E0AE
:100970000E946C04EC01B8010E946321882329F0D5
:1009800061E0C8010E946C04EC01F80185818111CD
:100990000E94781BB801CE010E943704811106C065
:1009A00080E0DF91CF911F910F910895B801CE01A2
:1009B0000E948B218823A1F3B801CE010E945F1C05
:1009C000882371F3B801CE010E94B520882341F33A
:1009D000B801CE010E94DF1C882311F3B801CE01BB
:1009E0000E94351C8823E1F2B801CE010E94971BBA
:1009F0008823B1F2F8018581882361F0C330FCE7D8
:100A0000DF07E9F058F4C115ECE7DE07A9F0C130C3
:100A1000DC47B9F0C8010E943504C3CFCB358CE761
:100A2000D807A9F0CC35ECE7DE0771F0CA35DC4712
:100A300089F70E94DC0EEECF0E94A604B1CF0E947F
:100A4000E40E0E94AC04ACCF0E94D20EE3CF0E9411
:100A5000E00EE0CF0E9443230E9479050E94D8193E
:100A600008950E947D050E94CF1A0E944823089590
:100A7000292F332740E02115310511F0C90148E045
:100A80009C0164E0369527956A95E1F721153105BB
:100A900011F04C5FC9019C01369527953695279535
:100AA0002115310511F04E5FC90196958795892B67
:100AB00009F04F5F842F0895089581E00895089507
:100AC000CF93DF93D82F0E945D05C82F882319F09C
:100AD0008D2F0E945F058C2FDF91CF91089508958F
:100AE000CF93C82F0E945C058C2F0E946005CF9188
:100AF000089580E00E94700508950E9416220E94C9
:100B000070050895CF930E941622C82F809101038B
:100B10008C1779F0C09301030E94D22360930203E3
:100B20007093030380930403909305038C2F0E941A
:100B30007005CF910895ADE0B0E0E1EAF5E00C94E6
:100B40005D2B488759876A877B878C879D879111A2
:100B50000E940F0E1F8286E0FE013896DE0111967C
:100B600001900D928A95E1F78D8181110DC0298147
:100B70003A814B815C816D817E818F810E94530D12
:100B80002D96E2E00C94792BCE0101960E94770419
:100B90008111EDCFF5CFFC012481213021F480813A
:100BA00091810E94C90A0895662329F00E94401E7F
:100BB0000E94251F08950E94AC1EFACFCF93C82F24
:100BC0008823C9F08238C9F40E94232281FD13C012
:100BD00089E30E94D9220E94810E2FEF87EE93E0D5
:100BE000215080409040E1F700C0000089E30E945E
:100BF000E1220E94810ECF9108958338A1F40E94D2
:100C0000232280FDF8CF83E50E94D9220E94810E25
:100C10002FEF81EE94E0215080409040E1F700C03A
:100C2000000083E5E4CF8438A1F40E94232282FDF2
:100C3000E2CF87E40E94D9220E94810E2FEF81EE3D
:100C400094E0215080409040E1F700C0000087E42C
:100C5000CECF8CEF8C0F813A70F48C2F0E949E22A5
:100C6000882329F08C2F0E94E1220E94810E8C2F74
:100C70000E94D922BECF80E28C0F883048F4C77022
:100C800081E001C0880FCA95EAF70E94EC0DB1CF50
:100C9000EBE5EC0FE33040F4F0E0E657FD4F8081E8
:100CA00090E00E943F22A7CFE8E5EC0FEB3150F433
:100CB000F0E0EE0FFF1FEC5AFD4F808191810E9402
:100CC000642299CF83E38C0F833108F094CF61E0E5
:100CD0008C2F0E94D4058FCF882309F456C0823808
:100CE00079F40E94232281FF50C089E30E94D92217
:100CF0000E94810E89E30E94E1220E94810E0895E4
:100D0000833859F40E94232280FF3FC083E50E946C
:100D1000D9220E94810E83E5EECF843859F40E94D7
:100D2000232282FF32C087E40E94D9220E94810ED2
:100D300087E4E1CF9CEF980F913AE8F290E2980FA8
:100D4000983050F4877091E001C0990F8A95EAF7C6
:100D5000892F0E94F20DD1CF9BE5980F933028F494
:100D600090E080E00E943F22089598E5980F9B3123
:100D700028F490E080E00E946422089593E3980FA5
:100D8000933118F460E00E94D40508951F93CF9327
:100D9000DF93182FEB010E94DE05209739F4812F95
:100DA0000E946C06DF91CF911F9108958FE99FE01B
:100DB0000197F1F700C000002197EFCF70E060E0ED
:100DC000893311F460E570E00E94C6060895882317
:100DD00021F00E94EC0D0E94810E0895882321F0DD
:100DE0000E94F20D0E94810E0895B0E0A0E0EBEFAA
:100DF000F6E00C94562B6C01D62FC72FFC01158101
:100E0000068102950F700E94E20DE82E8823F9F00A
:100E1000E12E1123E1F08C2F807F803461F080E29D
:100E20008D0F883008F18C2F807E803221F4D230F3
:100E3000D8F00023C9F080910A0482FF15C082E037
:100E40000E94A60E0E94E20D91E0E82EE926BC2E3B
:100E5000B2949FE0B922FBE0FB15B8F1EB2DF0E076
:100E6000EE54F34D0C94162BE12CF1CF0C2F0F7098
:100E7000C07F11F00295007F112399F0002359F0F3
:100E800080E28D0F883010F0D11107C0802F0E94B2
:100E9000EC0D0E94810E8D2F5AC0802F0E94020EF1
:100EA000F8CF8D2F0E946C06002379F080E28D0F21
:100EB000883010F0D11104C0802F0E94F20D03C0C1
:100EC000802F0E94080E0E94810EEB2DE850FF0B30
:100ED000349720F40E9416220E947005EE2089F0BB
:100EE0000E94DE0D80FD0DC0F60115820E94D80D16
:100EF0000E94D109C6010E9404090E94D80D0E94D7
:100F0000E109CDB7DEB7E9E00C94722B2C2F2F70DE
:100F1000F22EC07FC03219F0F29480EFF822DD2368
:100F200041F0D130D1F1112309F444C00023F1F094
:100F3000B2CF80910A0482FD15C0112359F0FF2021
:100F400029F08F2D0E94EC0D0E94810E80E00E94FE
:100F5000DE05BBCF80E00E946C06FF2009F4B5CF10
:100F60008F2DABCF112369F0011104C08F2D0E948A
:100F7000E706ABCF013009F0A8CF8F2D0E94290ED4
:100F8000A4CF0111A2CF8F2D0E94EE068F2D0E94BB
:100F9000350E8F2D0E94190E98CF112321F00630A7
:100FA00008F093CFE3CF053008F08FCF8F2D0E944C
:100FB000EE068BCF0023D1F3D93349F43FEF87EE10
:100FC00093E0315080409040E1F700C000008D2F49
:100FD0000E946C067ACF8C2F86958695837069F077
:100FE000813009F072CF8D2F9C2F9370111102C0A8
:100FF00080E090E00E94642268CF8D2F9C2F937038
:10100000111102C080E090E00E943F225ECF612F6C
:101010008D2F0E94D40559CF8C2F8370A1F511110B
:1010200054CF4D2F429546954770440F440F2D2FB6
:101030002F7030E0042E02C0220F331F0A94E2F713
:1010400090E080E0D4FF09C08FE090E002C0880FFC
:10105000991F4A95E2F780959095C695C695C370FD
:10106000822B932BC23049F058F4C13019F00E9402
:10107000A4092BCF0E949B0928CF0E94AD0925CF40
:101080000E94980922CF8695112311F08C2F817030
:10109000882309F41ACF4D2F429546954770440F87
:1010A000440F2D2F2F7030E0042E02C0220F331F6B
:1010B0000A94E2F790E080E0D4FF09C08FE090E06E
:1010C00002C0880F991F4A95E2F780959095C695C2
:1010D000C695C370822B932BC23049F058F4C130AF
:1010E00019F00E940C0AF1CE0E94030AEECE0E9473
:1010F000150AEBCE0E94B909E8CECF70112329F072
:101100008C2F0E94D1098D2F32CF8D2F0E94EE0699
:101110008C2F0E94E109D9CED23F41F160F4D03F3B
:10112000B9F0D13F81F0112309F446C00111B3CECB
:101130008C2F8F711FC0D33F01F1D43FA1F7809155
:101140000A0482FD24C08C2F8F71112311F312C069
:10115000112341F0053008F0B8CE8C2F8F710E941A
:10116000F309B3CE063008F0B0CEF7CF8C2F8F71D5
:101170001111CFCF0E94D109A8CE112329F08C2FB5
:101180008F710E94C509A1CE0E94C0099ECE112375
:1011900049F0CF718C2F0E94D10963E08C2F0E94FF
:1011A000880E93CE81E00E94A60E023008F48DCE08
:1011B00082E00E94A60E89CE002359F0D93309F0AF
:1011C00006CFEFEFF7EE23E0E150F0402040E1F7EB
:1011D000FCCE8C2F8F719DCF0F931F93CF93DF93F6
:1011E000EC01688179818D810E94D40A8C010E9472
:1011F0001E0A0E949709B801CE010E94F506DF91F0
:10120000CF911F910F910895CF93DF93EC018C81C3
:10121000882399F0CE010E94B204811111C00E946E
:10122000E20D882351F08D81882339F080910A04E2
:1012300082FF03C082E00E94A60EDF91CF91089545
:10124000CE010E94EC08CE010E948304F6CF8823D1
:1012500021F00E94020E0E94810E0895882321F041
:101260000E94080E0E94810E089590E080E00E9486
:101270003F2290E080E00E9464220E940F0E0E94B4
:10128000810E0E94411F0E94251F08950E94E9229D
:101290000E94350908950E94FC0D0E944609089598
:1012A00092959F70963091F058F4925F9F709230B3
:1012B00058F4803F19F030F4883E30F481E008950E
:1012C0009A5FF4CF843FD1F380E00895883EB0F375
:1012D000813FD1F7F3CFFC012481222339F08081B3
:1012E00091810E94C90A0E945009089580E00895E2
:1012F000A6E0B0E0EEE7F9E00C945D2B2696E2E084
:101300000C94792BA7E0B0E0E8E8F9E00C945D2BB1
:101310002796E2E00C94792B08950E948C09089599
:101320000E948D09909322038093210308950895CC
:101330000E94900908952091210330912203822B6D
:10134000932B0E949009089520912103309122034C
:10135000822393230E9490090895209121033091C4
:101360002203822793270E94900908950E947A03FE
:1013700008950E94B6099093200380931F03089557
:1013800090E080E00E94B909089521E030E0A901D1
:1013900002C0440F551F8A95E2F7CA010E94B9099D
:1013A000089521E030E002C0220F331F8A95E2F752
:1013B00080911F0390912003822B932B0E94B909E7
:1013C000089521E030E002C0220F331F8A95E2F732
:1013D0002095309580911F039091200382239323C1
:1013E0000E94B909089521E030E002C0220F331FA6
:1013F0008A95E2F780911F0390912003822793271B
:101400000E94B909089520911F0330912003822B77
:10141000932B0E94B909089520911F033091200356
:10142000822393230E94B909089520911F033091CC
:101430002003822793270E94B90908950895262F33
:10144000277091E001C0990F2A95EAF723E076957D
:1014500067952A95E1F7660F771F660F771FFA01E8
:10146000E60FF71F50E040E0682F70E08191DF0148
:1014700011979B01042E02C0369527950A94E2F736
:10148000217021952827292328272C934F5F5F4F10
:101490004430510559F70895A82FA77023E0969579
:1014A00087952A95E1F7880F991F880F991FFB01EF
:1014B000E80FF91F50E040E080E0219130E00A2E73
:1014C00002C0369527950A94E2F721703327042E3F
:1014D00001C0220F0A94EAF7822B4F5F5F4F44301E
:1014E000510559F70895262F973070F4863060F42F
:1014F000682F70E086E0989F600D711D112447E011
:1015000053E0822F0E941F0A0895292F973068F414
:10151000863058F490E067E073E036E0239F800D5A
:10152000911D11240E944C0A089580E00895B0E0B6
:10153000A0E0EDE9FAE00C94562B7C0100911F032A
:10154000109120038091210390912203082B192BE5
:10155000CFE0D0E0CC24C394D12CBC2EC6010C2EFD
:1015600002C0880F991F0A94E2F780239123892BE8
:1015700049F4219790F7B12C8B2DCDB7DEB7E9E078
:101580000C94722BB7018C2F0E949811019789F34C
:10159000F3CFCF93DF93EC010E94970ABE010E9424
:1015A0009811DF91CF9108951F93CF93DF93EB01B3
:1015B00090910603992339F0CB010E94C90ADF916B
:1015C000CF911F910895882369F0CB010E94970A5B
:1015D000182F682FCE010E94730ABE01812F0E942E
:1015E0009811EDCFCB010E94850A182FF6CFE1E0CC
:1015F000F0E0DF0102C0AA0FBB1F6A95E2F7BD0150
:10160000DF0102C0AA0FBB1F4A95E2F7AD01462BCE
:10161000572B02C0EE0FFF1F2A95E2F79A012823ED
:1016200039232417350719F48E2B9F2B0895E09545
:10163000F0958E239F2308951F93CF93DF93C0913E
:10164000230317E0809124038C1304C0DF91CF9112
:101650001F910895D0E01C9FF0011D9FF00D1124F3
:10166000EB5DFC4F20813181428153816481758122
:1016700086810E9482092196C770E4CF20915D0384
:1016800030915E0340915F0350916003609161036C
:1016900070916203809163030E9482090895CF9341
:1016A000DF9380916303807F09F04DC080916203D6
:1016B000882309F448C0E091230350912403C0918A
:1016C0005E03D0915D0360915F037091600347E01A
:1016D0005E17C9F18E2F90E0E49FF0011124EB5DBD
:1016E000FC4F2481222391F1489FF001499FF00D86
:1016F0001124DF01AB5DBC4F11962C9111972C1377
:1017000025C02C912D1322C015962C9115972111CF
:101710001DC012962D913C91261B370B283C31059C
:10172000A8F4809163038F70806180936303E55D0B
:10173000FC4F80818F70806180838DE593E00E94F3
:1017400004090E941C0BDF91CF910895FC01319692
:10175000E770BECF482F209123039091240357E0D8
:10176000291302C080E0089530E0529FF001539F9A
:10177000F00D1124EB5DFC4F8181681306C0808160
:10178000481303C085818111EECF2F5F3F4F277033
:10179000E7CFA4E1B0E0EFECFBE00C94532B8C011D
:1017A00086E0F801DE011F9601900D928A95E1F71F
:1017B000F8018481E5809DE5A92E93E0B92E9091F2
:1017C000610391111FC08823D1F0EE20A9F0C80158
:1017D0000E946B09F82E882379F087E0F801D50183
:1017E00001900D928A95E1F7C5010E94CB050E94F8
:1017F0004F0B0E943E0B5FC0C8010E940409FF24EA
:10180000F39459C0C080D18082809380F0906203AD
:1018100020915F0330916003A401421B530BFF2012
:1018200009F4F9C0483C510508F0A7C0882309F421
:1018300042C090915E0380916303282F207F09F0BE
:101840005CC09D1116C090915D03C91212C0E110D9
:101850004EC08F708061809363030E943E0B8DE5C4
:1018600093E00E94040980916303F8018683F12CC0
:1018700022C0E1103CC06D2D8C2D0E94AA0B6D2D55
:101880008C2D0E94AA0BE82E8111F1CFCF86D88A29
:101890008F8598890E94C90A292F22952F7024309C
:1018A00078F49F702230A8F09923B9F0F80196815E
:1018B000907F99F4FE2C8F2D6496ECE00C946F2BA6
:1018C0002A5F2F70223068F0C8010E940409EF2CB3
:1018D000F1CF992311F0882369F3805E883050F3AB
:1018E000F3CF803F38F3815F833070F7E3CF80918F
:1018F0006303816080936303BACF9D1113C09091FD
:101900005D03C9120FC0E1100DC08683C8010E949B
:10191000040987E0F801ADE5B3E001900D928A95E6
:10192000E1F767CFC8010E946B09882309F464CFEF
:10193000EE2009F461CF80916303803288F020911A
:101940005D0330915E03398728879B868A86909154
:1019500061039C871D868E87CE0108960E9404092C
:1019600087E0F801ADE5B3E001900D928A95E1F7CB
:101970000E944F0B0E943E0B42CF90916303292F90
:10198000207FA1F4682D9A8A898AA6017A899E2DE2
:101990000E9478098DE593E00E94040987E0F50133
:1019A00011928A95E9F70E943E0B61CF882309F4D2
:1019B00082CF80915E038D1110C080915D03C812AB
:1019C0000CC0E1100AC09683C8010E94040987E098
:1019D000F50111928A95E9F76ECFC8010E946B0953
:1019E000882309F409CFEE2009F406CF8091630320
:1019F000803208F4B5CF20915D0330915E033A83C5
:101A000029839C828B82909161039D831E828F83A8
:101A1000CE010196A3CF483C5105B8F5882309F4BF
:101A2000EECEFE2CEE2009F4E7CE80915E038D1100
:101A30001EC080915D03C8121AC08091630380FDAF
:101A40000DC0982F907F51F08683903F09F45ECFB0
:101A5000982F907F905F8F70892B57CF87E0F80188
:101A6000ADE5B3E001900D928A95E1F724CFC8016E
:101A70000E946B09811174CF809163038160809310
:101A80006303C8010E94040916CF682D9A8A898AC7
:101A9000A6017A899E2D0E94780987E0F5011192AE
:101AA0008A95E9F7A6CEAEE0B0E0E9E5FDE00C945A
:101AB0005C2B288739874A875B876C877D878E8771
:101AC000CE0108960E94C90B8823B1F06C8566236D
:101AD00041F0288539854A855B857D858E850E9404
:101AE000820917E0809123039091240389133DC05C
:101AF0002E96E3E00C94782B87E0FE013896DE0109
:101B0000119601900D928A95E1F78C85882349F30F
:101B10002091240330E0C9010196877099274091F4
:101B200023034817190699F097E0929FD001939FDD
:101B3000B00D1124AB5DBC4FFE01319601900D92AA
:101B40009A95E1F7809324030E941C0BCACF0E9450
:101B50004B09109224031092230387E0EDE5F3E094
:101B6000DF011D928A95E9F7BCCF819FC001112446
:101B70008B5D9C4F0E94C90B882309F4B9CFE0917B
:101B800023031E9FF0011124EB5DFC4F2081318166
:101B9000428153816481758186810E94820980918E
:101BA000230390E0019687709927809323039ACFAF
:101BB00080916C03869586958695089580916C0337
:101BC0008770089590916C03977081E009F480E02C
:101BD000089580917803089590917803892B8093DC
:101BE00078030895809590917803982390937803D3
:101BF0000895809378030895109278030895809152
:101C00007703089590917703892B80937703089544
:101C1000809590917703982390937703089510927D
:101C20007703089580916E03089508950E94150E1C
:101C3000089590916D03292F282331F080958923F1
:101C400080936D030E94160E089508950E94250E3C
:101C5000089590916E03292F2823281729F0982B97
:101C600090936E030E94260E089590916E03292F83
:101C7000282331F08095892380936E030E94260EDD
:101C8000089580916E03882329F010926E0380E0FE
:101C90000E94260E08950F931F93CF93DF93009118
:101CA0002C0210912D02C091780380917703C82BEC
:101CB00080916E03882331F0C82B0E948922811104
:101CC0000E94410EF801C083C0912C02D0912D02D8
:101CD00048E050E064E673E0CE010E94232C892B9B
:101CE00059F088E0FE01A4E6B3E001900D928A95D8
:101CF000E1F7CE010E942622DF91CF911F910F9133
:101D000008950E944B0E089508950E94840E089530
:101D100090910A0492FF11C098E0899F90011124CC
:101D2000622B60936C030E94D10980916C038695AD
:101D3000869586950E94850E08950E94D109089582
:101D400010926C0380E00E94850E089590916C03C0
:101D50008095892380936C03282F277069F4891755
:101D600059F090910A0492FF07C086958695869552
:101D70000E94E1090E94A00E089590910A0492FB2E
:101D8000222720F9281769F080FB92F990930A0422
:101D90008091090490910A040E94050F82E00E943C
:101DA000A60E089580910A0482FB882780F991E0AD
:101DB00089270E94BD0E089581E00E94BD0E0895FE
:101DC00080E00E94BD0E08956FEF7FEF90E080E00D
:101DD0000E947B2C089590E080E00E94472C21E037
:101DE000863E9E4F09F020E0822F089582E090E029
:101DF0000E94392C089583E090E00E94392C0895C8
:101E000084E090E00E94472C0895BC0184E090E0BB
:101E10000E947B2C0895AB01BC018FE090E00E94F2
:101E20006F2C0895AB01BC0183E190E00E946F2C00
:101E3000089560E070E0CB010E94120F089560E009
:101E400070E0CB010E940B0F0E94190F0895A8E0CB
:101E5000B0E0EDE2FFE00C945D2B66EE7EEF90E0EB
:101E600080E00E947B2C60E082E090E00E945D2C8C
:101E700081E090E0909322038093210361E083E06E
:101E800090E00E945D2C60E074E184E090E00E94AC
:101E90007B2C60E086E090E00E945D2C6FEF87E095
:101EA00090E00E945D2C40E050E0BA0188E090E0B4
:101EB0000E946F2C60E084E290E00E945D2C60E064
:101EC00087E190E00E945D2C60E08CE090E00E9451
:101ED0005D2C60E08DE090E00E945D2C19821A82FA
:101EE0001B821C821D821E821F82188648E050E0E1
:101EF00068E170E0CE0101960E944D2C40E050E078
:101F0000BA0180E290E00E946F2C0E941F0F289679
:101F1000E2E00C94792B0E94270F0895682F8EE041
:101F200090E00E945D2C0895A6E0B0E0EAE9FFE0B1
:101F30000C945B2B0E94C6238C01809179039091B5
:101F40007A038017910781F019821A820E94C623B2
:101F5000682F49815A81792F80E090E00E949B058B
:101F600010937A03009379032696E4E00C94772B80
:101F70000E94D22360938603709387038093880323
:101F80009093890360938203709383038093840307
:101F9000909385030895089508950E94CB0F0895A6
:101FA0000E94740308958EE892E10E9402140E9438
:101FB000CC0F0E94CD0F089581E008950E94DC0FA0
:101FC00008950E94DC0F0895089508950E94E40F7B
:101FD0000E94E50F08950E9491120E946F050895D6
:101FE0000E94BD230E945C130E94EB0F0E94811A85
:101FF0000E94D00F08950E94ED210E94D51C0895E3
:10200000A6E0B0E0E6E0F0E10C94542B0E94DE0F75
:1020100081110EC00E94940F0E94FB0F0E94791B39
:102020000E94631F0E9482052696EBE00C94702BA1
:102030000E9472138BE7A82E83E0B82E750110E082
:10204000F70101917F01812F0E94B7121F5F1730A6
:1020500009F441C00817A1F380918A0381FD0E9411
:10206000BD120E94E10FC82E10E099249394812F95
:102070000E94B712082FF50181915F01081729F11D
:10208000F12CEE24E394D02ED8268D2D8E21A9F0AC
:10209000CC2099F0F9821A830E94C6239C838B83FB
:1020A0009D8291E0802F8E2109F490E049815A8130
:1020B0006B817C818D810E949B05F394EE0CF6E090
:1020C000FF12E3CFF501319700831F5F173079F6D8
:1020D0000E94B80FA1CF0813BFCF9CCF1F93CF93FF
:1020E000DF930E949D11EC01C11580E5D807F0F542
:1020F000C11580E4D80708F09CC0C03ED10520F58A
:10210000CD3CD10508F082C0C83AD10578F4C53A73
:10211000D10508F073C0C130D10519F1209709F13C
:10212000C430D105F0F4D0E0C0E01BC0C33CD10501
:10213000D0F7C85AD0E0CC0FDD1FC357DD4F099050
:10214000D881C02DD4640DC0C11580E2D80708F035
:10215000D1C0C11581E0D80708F05AC0C83ED105EA
:1021600010F7CE01DF91CF911F910895C03682E51F
:10217000D80718F5C03482E5D80708F06BC0C03224
:1021800082E5D80708F05FC0C11582E5D80708F4DA
:1021900097C02C2F2695269580E2289F9001112428
:1021A0008C2F8370C1E0D0E002C0CC0FDD1F8A9578
:1021B000E2F7C22BD32BDD68D4CFC03A82E5D80733
:1021C00060F4C03882E5D80708F459C0CF71D0E078
:1021D000DC2FCC27C46FD06AC4CFC03C82E5D807BF
:1021E00008F462C0C03E82E5D80708F09CCFDC2F1F
:1021F000CC27CC27DF71C06FD06AB3CFC55AD0E0EF
:10220000CD53DD4FC881D0E0D064ABCFD065A9CF2E
:102210008D2F0E943F12182FCE0199270E949D11E9
:10222000C12FD0E0DC2FCC27CC27DF71C82BD92BD6
:1022300098CFCE0199270E949D11CC27DF70C82B23
:10224000D92BD06A8ECFCF71D0E0DC2FCC27C16FD5
:10225000D06A87CF2C2F26952695277080E2289F5D
:10226000900111248C2F8370C1E0D0E002C0CC0F0C
:10227000DD1F8A95E2F7C22BD32BDC6872CF2C2F9F
:1022800026952695277080E2289F900111248C2F97
:102290008370C1E0D0E002C0CC0FDD1F8A95E2F769
:1022A000C22BD32BDA685DCF8C2F8F710E943F1227
:1022B000C82FD0E0DC2FCC27CC27DF71D06251CFE4
:1022C0008C2F8F710E943F1255E0D695C7955A9575
:1022D000E1F7CF70D0E0DC2FCC27282F30E084FF4F
:1022E00005C044E0220F331F4A95E1F7C22BD32BE0
:1022F000D06937CF8D2F8F710E943F12182FCE01DA
:1023000099270E949D11C12FD0E0DC2FCC27CC272C
:10231000DF71C82BD92BD2CF462F773030F46630FF
:1023200020F4672F0E94C603089590E080E008958E
:102330000E948C110E946E10089582389105B9F1A7
:10234000B0F48133910509F47DC048F489329105D8
:1023500009F46DC08A32910509F47BC00895853374
:10236000910509F45FC08933910509F10895833E11
:102370009105D9F138F4803E910529F1823E91050D
:1023800079F10895863E9105D9F1873E910509F4CA
:102390003EC0843E910541F520910A0421FF24C0EE
:1023A0008091090484FD19C087EE90E00895209182
:1023B0000904237009F05AC020910A0423FF14C0B5
:1023C00089E290E008952091090420FD38C0309101
:1023D0000A0430FF09C024FF43C090E080E0089564
:1023E0002091090422FDF7CF08952091090422FDD0
:1023F0003AC030910A0430FD39C024FFF5CFEDCF4B
:102400002091090423FFF0CF24FDE7CFCDCF209109
:10241000090423FD2EC030910A0431FFEECF84EE73
:1024200090E008952091090425FFDECFC9CF2091C7
:10243000090425FD21C020910A0423FFD5CF89E39B
:1024400090E0D2CF2091090426FFCECF8AE290E01F
:1024500008952091090426FFC7CF81E390E00895F5
:1024600083EE90E0089582EE90E0089580EE90E093
:10247000089586EE90E0089585E390E008959091A8
:10248000090492FF10C041E0282F2471243009F084
:1024900040E031E0282F2871283009F030E0431760
:1024A00011F02CE0822793FF10C041E0282F247107
:1024B000243109F040E031E0282F2871283109F05B
:1024C00030E0431711F02CE0822730910A0430FFEE
:1024D00010C051E0282F2171213009F050E041E077
:1024E000282F2871283009F040E0541711F029E016
:1024F000822731FF10C041E0282F2171213109F0DE
:1025000040E031E0282F2871283109F030E04317EE
:1025100011F029E0822794FD877E089580E00895D8
:1025200008950E94EB0E811102C00E948B0F0E9441
:10253000F60E80938A030E94000F90930A04809302
:1025400009040E9490120E94FB0E90E00E949809DC
:1025500080911F03909120030E94B6090895089569
:102560000E94AF12089508950E94B3120895E82FB3
:10257000F0E0EE5EFB4F80810895089580EA8A9531
:10258000F1F7089500C008950E94BE120895F894CE
:10259000E82FE295EF70F0E031A1282F2F7081E055
:1025A00090E001C0880F2A95EAF7982F9095932321
:1025B00091A392A1892B82A3789408950F931F93DE
:1025C000CF93DF93CCECD2E089918F3F11F00E9442
:1025D000C71282E0C33DD807B9F7C6ECD2E00CECD5
:1025E00012E089918F3F11F00E94C7120C171D074E
:1025F000C1F7DF91CF911F910F910895B0E0A0E056
:10260000E4E0F3E10C94572BEC01D62E062F10E0FA
:10261000C80184539D4F7C01FC0180818F3F09F4E8
:1026200044C0F894E82FE295EF70F0E091A18F702C
:1026300021E030E001C0220F8A95EAF7892F822B32
:1026400081A382A12095282322A378940E94C212FC
:10265000E6ECF2E031E0C12C21912F3F59F1A22F9D
:10266000A295AF70B0E090968C9190E02F7002C070
:10267000959587952A95E2F780FD1CC0832FC82A7F
:10268000330F82E0EC3CF80739F7F70180818F3F88
:1026900011F00E94C71261E0C11001C060E08D2DF1
:1026A0000E94C412C00FD11FC882CDB7DEB7E8E0C8
:1026B0000C94732B80E0E3CF0E94DE1287E0E2E10E
:1026C000F4E0DF01982F1D929A95E9F7EBE0F4E032
:1026D000DF011D928A95E9F787E00E94AD130E9401
:1026E000B0120895A7E0B0E0E8E7F3E10C945A2BAC
:1026F0008E010F5F1F4F87E0F80111928A95E9F76D
:10270000F12C6F2DC8010E94FE12F394F7E0FF1226
:10271000F8CF47E050E0B8018BE094E00E94232C12
:1027200021E0009709F420E0892B41F087E0F801CF
:10273000ABE0B4E001900D928A95E1F747E062E1E9
:1027400074E08BE094E00E94AE13182F0E94B41244
:10275000812F2796E5E00C94762B0895B0E0A0E059
:10276000E4EBF3E10C94572B6C017B01042FC22F97
:10277000222379F081E080938D030E94C6239093F9
:102780008C0380938B0380E0CDB7DEB7E8E00C9438
:10279000732BD0918D03DD23B1F380918B03909146
:1027A0008C030E94DE23059770F310E0A801B601A8
:1027B000C7010E94232C892B31F0A801B601C70163
:1027C0000E94302CCD2F10928D038C2FDDCF0E94D4
:1027D00088250E94F00F0E94952508950E949A2551
:1027E0000E9400100E94B42508950E945F230E9459
:1027F0006E250E94D30F0E94E7130E94EE130E94E1
:10280000E60FFBCF9093FF028093FE020895EF92B4
:10281000FF920F931F93CF93DF93EB01E82FD1111A
:102820000EC0442321F0F0E0E254FC4FE4916E2FFF
:102830007E2F8E2FCDB7DEB7E6E00C94752B0D2FD3
:1028400010E0282F30E0442329F022543C4FF901B6
:10285000249130E0F6E0CF9FC0011124EFEFF0E0CB
:10286000BF010E94CC2AAB018C2F90E0880F991FEA
:10287000A5E5A49FB001A59F700D1124861B970BA1
:10288000982F990F980FBF01601B710B629FD001A9
:10289000639FB00D729FB00D11248B2F9D9FB001CF
:1028A0001124672F7727EF01C61BD70BBE01629F4C
:1028B000E001639FD00D729FD00D11247F01E91AB2
:1028C000F108E09EB001E19E700DF09E700D1124A4
:1028D000672F7727E61BF70BE29F8001E39F100D20
:1028E000F29F100D1124E12F722F4230510599F003
:1028F00048F44115510569F04130510581F0EB2F45
:102900008D2F07C04430510569F080F046305105E5
:10291000B1F76E2F8FCFE22F7B2F812FFACFE22FCF
:102920007D2FF7CFEB2F822F712FF3CF7B2F822FAD
:10293000ED2FEFCF41E00E940714089508950E9403
:102940009A140895CF93DF93762FE901682F842F8F
:102950000E949F14798368838A83DF91CF910895C1
:1029600080911904982F9C7F29F483708460809350
:10297000190408958C3AE8F38370886AF8CFB0E0C0
:10298000A0E0E5ECF4E10C94572B88E090E00E9485
:10299000412C6B017C0184E290E00E94392C282FAD
:1029A00030E040E050E060E070E080E090E000E285
:1029B0000E94842BB22FA32FF42FE52FD62FC72FE1
:1029C00097018601BC29A12BFE295E2F532B2B2FAB
:1029D0003A2F4F2F6D2F7C2FCDB7DEB7E8E00C9448
:1029E000732BB0E0A0E0E7EFF4E10C94532B490126
:1029F0005A016B017C010E94B0148401A4016A2D6C
:102A00007B2D88E090E00E946F2C94014A2D5B2D75
:102A1000B601C70100E20E949F2B622F84E290E082
:102A20000E945D2CCDB7DEB7ECE00C946F2BE9E192
:102A3000F4E085E0808311828FEF828383831482A8
:102A4000758125E030E04FEF5FEF60E08681978190
:102A50000E94F11408958091190480FF03C08695A7
:102A60008695089580E0089590911D04933018F4A0
:102A70009F5F90931D04882391F020911904309159
:102A80001A0440911B0450911C0460911D04709124
:102A90001E0480911F04909120040E94F114089557
:102AA00081E00E943415089590911D04992319F036
:102AB000915090931D04882391F020911904309136
:102AC0001A0440911B0450911C0460911D047091E4
:102AD0001E0480911F04909120040E94F114089517
:102AE00081E00E945415089570E00E94091C089529
:102AF000609132028091190480FF0BC080913102F5
:102B000023E0829FC00111248F5D9B4F0E947415AA
:102B10000895809133029091340223E0829FF00166
:102B20001124EF5DFB4F891748F711821082128242
:102B30008F5F3396F8CF9091190490FF0EC090915B
:102B400033022091340233E0939FF0011124EF5DB2
:102B5000FB4F921718F00E947815089581836083C7
:102B600042839F5F3396F5CFA3E0B0E0EAEBF5E157
:102B70000C945D2B9091190490FF0AC09E012F5F69
:102B80003F4F0E94A2144B8169818A810E949B154C
:102B90002396E2E00C94792BCF93DF93EC01EC8148
:102BA000F0E0E754FD4F4491E9E1F4E06281818176
:102BB0000E94B4158C818F5F8C83DF91CF91089533
:102BC000CF93DF93EC01E9E1F4E0438162818C81F2
:102BD0000E94B4158C818F5F8C83DF91CF91089513
:102BE000A3E0B0E0E6EFF5E10C945B2B8C01809163
:102BF0008E0381110AC09E012F5F3F4F4FEF6FEF91
:102C00000E94A2148A8180938E03F801648161304E
:102C100069F080918E0340E0662361F040E062300D
:102C200011F440918E0380E060E004C060918E0357
:102C300040E080E00E949B15F801848190E00196BD
:102C400063E070E00E94E02A84832396E4E00C9421
:102C5000772BA3E0B0E0EFE2F6E10C94562B082FBF
:102C6000D62EF42EC22E9091190490FF2FC0E92F7A
:102C7000E695E695AE2FB0E0AD52BD4F8C918093B6
:102C8000D1039C7F943031F59E012F5F3F4F802F01
:102C90000E94A2144B8169818A810E949B15009336
:102CA0001A04D0921B04F0921C04CC2079F02091DD
:102CB000190460911D0470911E04302F4D2D5F2D5D
:102CC00080911F04909120040E94F1142396E9E062
:102CD0000C94722B823019F4F0901C04E0CF8630F3
:102CE00019F400911A04DBCF8930D9F38931B9F690
:102CF000E9516E2F6170B62EE695F0E0E754FC4F77
:102D00001491E12C60913502E61618F00E947815B6
:102D1000C6CFE19EC001112470E00E94CC2A802F12
:102D2000B11014C0860F20913302622F6E0D7727E9
:102D3000771F9B01220F331F260F371F2F5D3B4F3D
:102D40004F2D6D2D0E94A214E394DCCF861BEBCF98
:102D5000E9E1F4E09181282F4381628180E1890FCC
:102D60000E942916089581E00E94A8160895E9E1BD
:102D7000F4E09181282F4381628180EF890F0E94C6
:102D80002916089581E00E94B7160895E9E1F4E05C
:102D9000628120E1620F08F46FEF282F4381818167
:102DA0000E942916089581E00E94C6160895E9E15F
:102DB000F4E0628120E1621B08F460E0282F438187
:102DC00081810E942916089581E00E94D7160895F6
:102DD000E9E1F4E0438120E1420F08F44FEF282FAE
:102DE000628181810E942916089581E00E94E8167F
:102DF0000895E9E1F4E0438120E1421B08F440E05A
:102E0000282F628181810E942916089581E00E9405
:102E1000F916089521E00E942916089520E00E94E5
:102E200029160895EF92FF921F93CF93DF93EC0141
:102E300010E0EE24EA94F12C60913502161770F040
:102E40000E9478159A818C8190FF27C08F5F8C83B8
:102E5000DF91CF911F91FF90EF9008952091330261
:102E6000422F410F5527551FCA019A01220F331FC8
:102E7000280F391F2F5D3B4F70E0C7010E94E02AE9
:102E8000962F8C8140911C0460911B04199F800D2A
:102E900011240E94A2141F5FCFCF8150D8CFB0E081
:102EA000A0E0E5E5F7E10C94552BFC0182810FEFE2
:102EB00080FF01E010E04BE0A42E8091350218174E
:102EC00098F00E94781580919003013009F04FC06E
:102ED000811102C080913502815080939003CDB75B
:102EE000DEB7EAE00C94712BC0913302C12ED12CD5
:102EF000CC0DDD2DD11DCE01880F991FC80FD91F14
:102F0000CF5DDB4F198218821A8234E0E32EF12C58
:102F1000B12C809190038B0D8C301CF16A2D0E9496
:102F2000BE2A892F082E000C990BC816D90691F4D9
:102F300080911C048E9DA0018F9D500D11245595EC
:102F40004795559547959E0160911B0480911A0401
:102F50000E94A214B00EF1E0EF1AF108D1F61F5F43
:102F6000ACCF87FFDFCF90913502890FDBCF90E0A8
:102F700001966091350270E00E94E02AAECF0F9377
:102F80001F93CF93DF93809133029091340223E01B
:102F9000829FF0011124EF5DFB4F891740F1C0E0E3
:102FA000D3E060913502C61740F10E947815209158
:102FB0002F0280918F03820F80938F0390913002B4
:102FC000920F90933002191654F4082E000C990BAE
:102FD000409135024150550B841795071CF02195FF
:102FE00020932F02DF91CF911F910F9108951182AD
:102FF000108212828F5F3396D0CF0C2F10E070E0DA
:10300000C8010E94E02A20913302820F482F50E02D
:1030100020918F03022E000C330B02171307BCF014
:1030200020913002022E000C330B201731077CF068
:103030008D9F900111242F5D3B4F40911C046091A6
:103040001B0480911A040E94A214CF5FAACFFA0138
:10305000EE0FFF1FE40FF51FEF5DFB4F1182108293
:103060001282F3CFB0E0A0E0E8E3F8E10C94532B38
:10307000EC014C81042F10E09801D8010E94242B10
:103080009B01AC010E943A2B4B015C01E0E2F0E0B5
:10309000E01BF10BA5E5B0E0AC019B010E943A2BCF
:1030A0006B017C019F01DF010E941C2B9B01AC0185
:1030B0000E94452B9B01AC01280D391D4A1D5B1D4B
:1030C000C701B6010E94F42AF22E822F90E039E265
:1030D0003F1520F143E0249F900111243595279559
:1030E000122F109500E085E5E82EEF18809135024B
:1030F000081718F10E9478159C8181E0992319F036
:10310000903219F48FEF80932E0280912E02890F56
:103110008C83CDB7DEB7ECE00C946F2B25E530E067
:10312000B901681B790B9B01220F331F260F371F34
:1031300037FFD4CF2F5F3F4FD1CF8E2D01FD8F2D85
:1031400020913302622F600F7727771F9B01220F98
:10315000331F260F371F2F5D3B4F412F60911B04FC
:103160000E94A2140F5FC2CF0F931F93CF93DF93E0
:10317000EC0110E000E0909135029017110609F083
:103180006CF40E9478158C8190E0019681709927EB
:103190008C83DF91CF911F910F910895209133027D
:1031A000A801420F511D9A01220F331F240F351F12
:1031B0002F5D3B4F4C8160911B0480911A049695C2
:1031C0009017110651F04CF0442349F040911C0433
:1031D0000E94A2140F5F1F4FCECF4423B9F340E0EB
:1031E000F7CFB0E0A0E0E7EFF8E10C944F2BFC0143
:1031F0006280448081E08483E9EBF2E07490E8E34C
:10320000F3E0E491C0911C04C695C158D0E0CC0F06
:10321000DD1FCD2FDD27812C75E0972EAA24AA94DF
:10322000B12C55245A94E719EE2EF12C80913502D9
:10323000881638F00E947815CDB7DEB7E0E10C941F
:103240006B2BC82CD12C82E0861568F09C9CF00179
:103250009D9CF00D1124EF56FC4F80911A04808341
:1032600080911B048183411023C09C9CF0019D9C94
:10327000F00D1124EF56FC4F13821282209133027D
:10328000C601820F911D9C01220F331F280F391F89
:103290002F5D3B4F9C9CF0019D9CF00D1124EF563F
:1032A000FC4F4281618180810E94A2148394BECF31
:1032B0009C9C80019D9C100D11240F561C4FF80101
:1032C00083818823F1F081508383859DC00111247F
:1032D000648170E00E94CC2AFB01FF27E754FD4F78
:1032E0008491E82FE719E59DC0011124B7010E94E0
:1032F000CC2A80911C04689FB0011124F8017283CC
:10330000BDCF0E94062CB5010E94E02A8C179D07B4
:103310000CF0B4CFF2E0F61598F40E94062CB5013B
:103320000E94E02AF80180830E94062C20911B0451
:103330002695622F70E00E94E02A280FF801218371
:103340009C9CF0019D9CF00D1124EF56FC4F1282C5
:1033500080911C04893C58F088EC9C9CF0019D9C59
:10336000F00D1124EF56FC4F8483838387CF843183
:10337000A0F784E1F2CFE9E1F4E020812E7F208301
:1033800031814281538164817581868197810E9458
:10339000F1141092D2030E9478150895E9E1F4E047
:1033A00080818E7F80831092D2030E9478150895C9
:1033B0001092D2038091CF0381110AC081E08093E3
:1033C000CF038091190481708093CE030E94CE199F
:1033D0000895609119046695669570E04BE050E0A1
:1033E00086E392E00E94162C892B19F481E08093E9
:1033F000D2030E94C6239093C9038093C803089503
:103400009091190490FF34C09370811132C0946080
:1034100090931904662391F02091190430911A04B5
:1034200040911B0450911C0460911D0470911E0476
:1034300080911F04909120040E94F114609119045E
:103440006695669570E04BE050E086E392E00E945E
:10345000162C892BB1F01092D20381E08093CB031C
:1034600040911C0460911B0480911A040E940E1765
:1034700008958B3210F0986ACBCF880F880F982B65
:10348000C7CF0E94E919E9CF682F9091190496954A
:10349000969581E0890F8B3208F081E00E94001A36
:1034A000089581E00E94441A0895682F90911904AC
:1034B000969596958FEF890F09F48AE20E94001A7B
:1034C000089581E00E94551A089561E00E94001A53
:1034D0000895E9E1F4E08081816080838695869596
:1034E0000E94651A08958091190480FF03C00E940C
:1034F000BB1908950E94691A089560E00E94001A9D
:1035000008958091D00381113FC00E94EB0E81117C
:1035100004C00E948B0F0E9417150E94BF142093B5
:10352000190430931A0440931B0450931C046093B5
:103530001D0470931E0480931F04909320042C7F1D
:10354000A1F40E9417150E94BF1420931904309310
:103550001A0440931B0450931C0460931D04709341
:103560001E0480931F04909320040E94B0141092B4
:10357000D2038091190480FF04C0869586950E942D
:103580007D1A81E08093D0030895E9E1F4E0808121
:1035900081608083869586950E947D1A0895109299
:1035A000CF038091CE0381110E94C51A0E94E919B0
:1035B00008950F931F93CF93DF938091D2038823B5
:1035C000C1F18091D103E0911904E695E695E81BDD
:1035D000E093CA03823091F5F0E0EB54FD4FE491A3
:1035E000CE2FD0E00CEC15E18091CB03882361F065
:1035F0001092CB030E94C6239093C9038093C80303
:103600001092CD031092CC030E94C623E091C80310
:10361000F091C9038E1B9F0B8F3F9F4750F4EC0F17
:10362000FD1FF093C903E093C80388EC93E0F80111
:103630000995DF91CF911F910F910895863049F43C
:10364000F0E0EE54FD4FE491CE2FD0E000EE15E116
:10365000CBCF893051F4E695F0E0E155FD4FE49190
:10366000CE2FD0E002E117E1BFCF8F3051F4E695C5
:10367000F0E0E455FD4FE491CE2FD0E00FE417E1E8
:10368000B3CF853149F4F0E0E755FD4FE491CE2FFB
:10369000D0E00FEB17E1A8CFC8E2D0E002E318E1D9
:1036A000883109F4A1CF833239F4E7EAF2E0C59119
:1036B000D49100EF15E198CFC4EFD1E004EB18E10D
:1036C000843209F491CFC0EDD7E00EE914E18532E0
:1036D00009F08ACF8E2F63E00E94B22AE92FF0E032
:1036E000EC55FD4FE491CE2FD0E001EF18E17CCFF7
:1036F00008950E94D91A0895FA01811101C0FB01B1
:1037000009950895CF93DF93C82FD62F0E942B15CC
:103710008C1748F00E942B158D1728F40E94511A1F
:10372000DF91CF9108958C2F0E94651AF9CF1F93D6
:10373000CF93DF93EC01FB011581111110C00E94A2
:10374000E90D8272FE01E052F847E531F10508F01B
:103750005EC0E254F34D0C94162B0E94731A812F15
:10376000DF91CF911F91089541E65AE161E57AE139
:103770000E947C1BF4CF41E55AE161E67AE1F8CF83
:1037800042EC56E163EB76E1F3CF43EB56E162ECBA
:1037900076E1EECF44EE56E163ED76E1E9CF43ED1D
:1037A00056E164EE76E1E4CF46E057E165EF76E17D
:1037B000DFCF45EF56E166E077E1DACF40E755E14C
:1037C00060E575E1D5CF40E555E160E775E1D0CF23
:1037D00081E00E94651AC3CF65E082E00E94821BEF
:1037E000BECF68E086E0FACF6EE089E0F7CF64E113
:1037F0008FE0F4CF67E185E1F1CF88E1EACF62E2C3
:1038000089E1ECCF83E2E5CF6AE285E2E7CF11E020
:10381000A6CF539A4BB1477F5BB15860EFB7F8948E
:103820009B01220F331F260F371F280F391F281720
:10383000390741F4EFBF8FE594E00197F1F700C03D
:1038400000000895DC016D91CD0178E05BB90000C6
:1038500000C067FF4BB9660F000000C000C000C089
:103860004BB900C07A9591F7E2CFCF93DF93EB018C
:1038700086319C4711F50E94E90D9D81992399F0AD
:103880008A7A91E009F490E09093D303811109C002
:1038900089E20E94D9220E94810E80E0DF91CF91BF
:1038A000089585E3F6CF8091D303811104C089E2A6
:1038B0000E94E122F0CF85E3FBCF81E0EFCFFF92C2
:1038C0000F931F93CF93DF938C01FB01D581D1110F
:1038D00007C0C1E08C2FCDB7DEB7E5E00C94762BA6
:1038E0000E94B11CF82E8823A1F00E94C81CC82F8A
:1038F00081110FC0C80190528115904308F411271F
:10390000C8010E94B41C8111E5CF0E94AC1CCF2DD0
:10391000E1CF08352CE71207E1F60E94931CCD2F6A
:10392000D9CF089508958091E103811114C00E94B8
:10393000911C81E08093E1030E94C6239093E003F1
:103940008093DF031092D403E5EDF3E08AE0DF011A
:103950001D928A95E9F708951092E1030E94921C46
:1039600008958091E10308959C019091D4039530CE
:1039700068F4E92FF0E0EE0FFF1FEB52FC4F3183AC
:1039800020839F5F9093D40381E0089580E00895A1
:103990008091DF039091E0030E94DE2321E08D32CD
:1039A000914008F420E0822F08958091E10388235C
:1039B00029F00E94C81C81110E94AC1C0895CF936D
:1039C000DF93EC01FB018581882309F4D2C09E01BD
:1039D00030572332310508F0B2C00E94000F909397
:1039E0000A0480930904FE01E150F047E232F10538
:1039F00020F4ED52F34D0C94162B80910904816054
:103A00008093090493C080910A04886080930A041B
:103A10008DC0809109048260F3CF80910904846095
:103A2000EFCF809109048860EBCF80910A04816018
:103A3000EDCF80910A048260E9CF80910904806112
:103A4000DFCF809109048062DBCF8091090480641C
:103A5000D7CF0E944B09809109048068D1CF809113
:103A600009048C60CDCF80910A048360CFCF809110
:103A700009048E7FC5CF80910A04877FC7CF8091CC
:103A800009048D7FBDCF809109048B7FB9CF8091D0
:103A90000904877FB5CF80910A048E7FB7CF8091CC
:103AA0000A048D7FB3CF809109048F7EA9CF8091C6
:103AB00009048F7DA5CF809109048F7BA1CF0E943F
:103AC0004B09809109048F779BCF80910904837FF4
:103AD00097CF80910A048C7F99CF8091090482FB53
:103AE000992790F921E0922790FB82F990FB83F9C6
:103AF00087CF80910A04982F909591708E7F892BA3
:103B000090FB81F983CF90910904892F8F7B96FFD9
:103B1000806476CF0E944B0990910904892F97FB0E
:103B200087F980586DCF81E00E948E0F8091090443
:103B300090910A040E94050F0E944B0980E0DF91DA
:103B4000CF91089580E0F0CF90910904892F8F7E66
:103B500094FF806155CF90910904892F8E7F90FF4B
:103B600081604ECF90910A04892F877F93FF8860F0
:103B70004DCF81E0E4CF282F35EB2303C001112482
:103B800097FF04C080589109892F089580589F4F4E
:103B9000FBCF8091E80380FF0DC06091460270E08A
:103BA000660F771F6038710570F56115710569F151
:103BB000862F089581FF07C06091460284E0689FC8
:103BC000B0011124EFCF6091460282FD0AC08091BE
:103BD000E7038823A9F020914502609146028217ED
:103BE00010F088E0ECCF869FC001112433E0880FED
:103BF000991F3A95E1F7622F70E00E94E02AD2CF38
:103C000068E070E0D5CF8FE7089581E00895809156
:103C1000E80380FF0CC06091420270E075956795E3
:103C2000759567956115710549F1862F089581FF96
:103C300006C06091420270E075956795F3CF609180
:103C4000420282FD0BC09091E6039923A1F060919E
:103C5000410280914202961738F0682F70E0603878
:103C6000710500F38FE70895899FC001112470E06A
:103C70000E94E02AF4CF61E070E0D7CF81E00895A0
:103C80009091EB032091EC03922B2091EE03922B69
:103C90002091ED03922B31F098E09093E70391E0AF
:103CA0009093E6038D3C31F40E94C91D8195809369
:103CB000EC0308958E3C19F40E94C91DF8CF8F3C87
:103CC00031F40E94C91D81958093EB030895803DD6
:103CD00019F40E94C91DF8CF893D29F40E94071EDE
:103CE0008093ED0308958A3D21F40E94071E81957B
:103CF000F7CF8B3D31F40E94071E81958093EE0330
:103D000008958C3D19F40E94071EF8CF9FE2980F8A
:103D1000983070F4815D990B21E030E001C0220FF2
:103D20008A95EAF78091EA03822B8093EA0308954B
:103D30008D3D31F48091E80381608093E80308951C
:103D40008E3D21F48091E8038260F7CF8F3DB9F773
:103D50008091E8038460F1CF4091EB038D3C59F4EE
:103D60008091EC0387FF0DC01092EC0341110BC052
:103D70001092E70308C08E3C81F48091EC03181682
:103D80009CF3442381F08091ED039091EE03892B05
:103D900009F05AC01092E60308958F3C49F447FF9A
:103DA000F0CF1092EB038091EC038111ECCFE0CFC8
:103DB000803D19F41416ACF3E4CF9091ED03893DE6
:103DC00029F41916F4F61092ED03DBCF8A3D19F4AD
:103DD00097FFD7CFF8CF9091EE038B3D29F497FF53
:103DE000D0CF1092EE03CDCF8C3D19F41916CCF341
:103DF000C8CF9FE2980F983090F4815D990B21E035
:103E000030E0B90102C0660F771F8A95E2F7CB0157
:103E100080959091EA0389238093EA03B2CF8D3D88
:103E200031F48091E8038E7F8093E803AACF8E3D22
:103E300021F48091E8038D7FF7CF8F3D09F0A1CF6A
:103E40008091E8038B7FF0CF08950E94C6239C01E8
:103E50009091EB038091EC03982B21F03093E503D4
:103E60002093E4039091ED038091EE03982B21F0D1
:103E70003093E3032093E20389EE93E00E94312222
:103E8000089586E0E9EEF3E0DF011D928A95E9F7F7
:103E90001092E7031092E6031092E8030895FC01E4
:103EA000828181110EC0838181110BC084818111B7
:103EB00008C091E08581811101C090E0892F817057
:103EC000089581E0FCCFA6E0B0E0E9E6FFE10C94C4
:103ED0005C2B86E0E9EEF3E0DE01119601900D9295
:103EE0008A95E1F71092EB031092EC031092ED0328
:103EF0001092EE038B819C81892B89F08091E403E1
:103F00009091E5030E94DE23AC019091E703992391
:103F1000C9F1809147028417150608F440C08D81CD
:103F20009E81892B91F08091E2039091E3030E949E
:103F3000DE23AC019091E603992309F46AC08091D5
:103F400043028417150608F472C0BE016F5F7F4FED
:103F500089EE93E00E94F422811105C089EE93E07E
:103F60000E944F1F81110E94251F86E0FE0131969D
:103F7000A9EEB3E001900D928A95E1F72696E3E071
:103F80000C94782B209148028AE0289F90011124FC
:103F90002417350720F69F5F9093E70302C09F3FE9
:103FA000D1F71B81112359F00E94C91D9FEF1116F3
:103FB0000CF491E0899F802D11248093EB031C81E8
:103FC000112359F00E94C91D9FEF11160CF491E0C6
:103FD000899F802D11248093EC038091EB0388232B
:103FE00009F49DCF1091EC03112309F498CF0E949E
:103FF000BB1D882351F08093EB03812F0E94BB1DD2
:10400000882329F08093EC038ACF81E0F4CF81E00C
:10401000F9CF209144028AE0289F900111242417AF
:10402000350708F092CF9F5F9093E60302C09F3F51
:10403000D1F71D81112359F00E94071E9FEF111621
:104040000CF491E0899F802D11248093ED031E8153
:10405000112359F00E94071E9FEF11160CF491E0F6
:10406000899F802D11248093EE038091ED03882396
:1040700009F46BCF1091EE03112309F466CF0E946F
:10408000BB1D882351F08093ED03812F0E94BB1D3F
:10409000882329F08093EE0358CF81E0F4CF81E0AC
:1040A000F9CF0F931F93CF93DF93C42FD22FFC012F
:1040B00085818823C9F04093F1030E94C623909321
:1040C000F0038093EF0380E28C0F883040F4C770D8
:1040D00081E001C0880FCA95EAF70E94E706DF91E8
:1040E000CF911F910F9108951091F103141332C0D5
:1040F0008091EF039091F0030E94DE23883C9105AC
:1041000048F5C0E2CD0F1D17B9F080E2810F88306D
:1041100040F4177081E001C0880F1A95EAF70E94F9
:10412000EE06C83048F481E09D2F977001C0880FDB
:104130009A95EAF70E94E706802F0E94DE06C830B3
:1041400070F6D77081E001C0880FDA95EAF70E9417
:10415000EE06C5CF80E28C0F883008F6C77081E08C
:1041600001C0880FCA95EAF7F2CF0F93DB0188519F
:104170009C4787309105A0F5FC01EB50F34D0C9462
:10418000162B06E221EE41EE6AE17CE7CD010E94AA
:10419000512080E00F91089507E225EE45EE6BE196
:1041A0007CE7F4CF06E221EE40EE68E17CE7EECF5B
:1041B00007E225EE44EE69E17CE7E8CF06E221EE76
:1041C00042EE6CE17CE7E2CF07E225EE46EE6DE1E0
:1041D0007CE7DCCF08E221E045EE6EE17CE7D6CF5C
:1041E00015968C91882319F01092F103D3CF81E0BA
:1041F000D1CF4115510511F0FA0109950895CF93DA
:10420000DF93EC014A855B856E857F850E94F920EE
:104210008B810E94080E8C810E94F20D0E94810EFB
:1042200086E0FE0111928A95E9F7DF91CF9108951A
:10423000CF93DF93EC018D8181FD11C082608D836E
:104240008B810E94020E8C810E94EC0D0E94810ED7
:10425000488559856E857F85CE010E94F920109290
:10426000F5031092F4038D8180FD03C0CE010E94FE
:10427000FF20DF91CF910895CF93DF93EC018A81E6
:10428000823041F4FB01828193810E9404048D817C
:1042900082608D83DF91CF910895FB0180819181B0
:1042A0000E9404040895FC018281813031F4FB01F5
:1042B000808191810E941A0408958230E9F7FB0100
:1042C00082819381F7CFCF93FB01C581CC23F1F09D
:1042D000E091F403F091F5033097D9F0E817F9076E
:1042E000C1F0FF2724E0EE0FFF1F2A95E1F7DF0161
:1042F000A75FBE4F2C9124602C93EC5FFE4F9183FF
:104300008083CF010E9418210E940F0E8C2FCF9125
:104310000895C0E0FBCF0F931F93CF93DF938C01E1
:1043200097558F3F910509F0C8F5C801992724E0FA
:10433000880F991F2A95E1F7EC01CC5FDE4FFB0156
:104340002581FC01E75FFE4F808120FB80F980839F
:10435000222351F10E94C6239093F3038093F2032A
:104360008A818F5F8A830E94E90D8B830E94FF0DF3
:104370009B81892B8B830E94120E8C834E815F81DF
:104380006E857F85CE010E94F9208D8181FF02C05C
:1043900010E000E01093F5030093F40381E0DF9157
:1043A000CF911F910F9108954C855D856E857F8516
:1043B000CE010E94F9208D8181FFF0CFCE010E94B5
:1043C000FF208091F4039091F5038017910731F756
:1043D0001092F5031092F403E1CF8091F4039091D1
:1043E000F503892BE9F08091F2039091F3030E9489
:1043F000DE23893C9105A0F08091F4039091F503B0
:10440000992724E0880F991F2A95E1F7FC01E75FBF
:10441000FE4F208122FD04C08C5F9E4F0E94182118
:1044200008959093FB038093FA030895E091FA03B3
:10443000F091FB03309729F00190F081E02D099570
:10444000089580E008950E9416220895E091FA03ED
:10445000F091FB03309721F00280F381E02D099564
:104460000895E091FA03F091FB03309739F022E0D0
:10447000DC012C930680F781E02D09950895A3E0D7
:10448000B0E0E5E4F2E20C945D2B2091F80330916A
:10449000F90328173907A1F09093F9038093F803E3
:1044A000E091FA03F091FB03309751F023E0298368
:1044B0009B838A830084F185E02DCE0101960995C6
:1044C0002396E2E00C94792BA3E0B0E0EAE6F2E276
:1044D0000C945D2B2091F6033091F70328173907D0
:1044E000A1F09093F7038093F603E091FA03F09123
:1044F000FB03309751F024E029839B838A83008457
:10450000F185E02DCE01019609952396E2E00C9409
:10451000792B40912C0250912D029A012E5F3F4F32
:10452000485F5F4F80E02417350709F40895F901CB
:1045300091919F019923B9F38F5FF5CF882371F093
:1045400020912C0230912D02F9013296285F3F4FC5
:104550009191981729F0E217F307D1F780E00895B9
:1045600081E008959C01FC0132969FEF80E041912B
:10457000461751F09F3F19F4411101C0982F8F5FEA
:104580008630A9F79F3F09F40895290F311D97FD43
:104590003A95F90162830895FC01329608962191BB
:1045A000261303C0DF0111971C92E817F907B9F72A
:1045B0000895682F80912C0290912D020E94B222C2
:1045C0000895682F80912C0290912D020E94CC2298
:1045D0000895E0912C02F0912D02329686E0DF01E1
:1045E0001D928A95E9F70895DC01FB0111969C91D3
:1045F00011978181981322C012968C91129788236B
:1046000019F0928189131AC013968C9113978823FD
:1046100019F09381891312C015968C9115978823F0
:1046200019F0958189130AC014969C91992321F061
:1046300081E02481291303C080E001C081E0817002
:10464000089508950E9421230895811106C081E0F4
:104650008093FC030E942223089582E0F9CF83E037
:104660008093FC030E94222308950E94252308952D
:1046700081E08093FC030E94222308950E94382346
:104680000895089508950E94422308950895089575
:104690000E9441230895CF930E9446230E947213E3
:1046A0000E944723C0E08C2F0E94B712811105C0E1
:1046B000CF5FC730C1F7CF91089581E0FCCF85B7B8
:1046C000806885BF85B7806885BF08951F921FB633
:1046D0001F9211248F939F93AF93BF938091FD03FB
:1046E000811113C08091420490914304A09144042D
:1046F000B09145044196A11DB11D80934204909351
:104700004304A0934404B0934504BF91AF919F919B
:104710008F911F901FBE1F90189580914A0484307E
:1047200031F10E942A051092FD0388E190E020E417
:104730000FB6F894A895809360000FBE2093600098
:1047400083B7817F846083BF83B7816083BF7894A0
:10475000889583B78E7F83BF0FB6F894A895809114
:104760006000886180936000109260000FBE089521
:104770000E944B090E943105089582E084BD93E0B8
:1047800095BD9AEF97BD80936E0008952FB7F8946A
:104790008091420490914304A0914404B091450457
:1047A0002FBF08952FB7F89460914204709143048D
:1047B00080914404909145042FBF08959C014FB708
:1047C000F8948091420490914304A0914404B091E4
:1047D00045044FBF821B930B089578941F921FB618
:1047E0001F9211248F939F93AF93BF9380914204A4
:1047F00090914304A0914404B09145040196A11DF9
:10480000B11D8093420490934304A0934404B09359
:104810004504BF91AF919F918F911F901FBE1F9034
:10482000189587E797E7909301088093000888E13F
:104830009AE00FB6F894A895809360000FBE90930D
:104840006000FFCF88E19AE00FB6F894A8958093B6
:1048500060000FBE90936000FFCF80910604089522
:1048600008959B01BA0190914A049430E9F48F7045
:104870008093E9009FEF8091E800915085FD06C08C
:1048800085ED8A95F1F700009111F5CF8091E80050
:1048900085FF0AC050E040E0C9010E942B268091AC
:1048A000E8008E778093E800089543E050E0BC0173
:1048B00082E00E943124089546E050E0BC0182E08D
:1048C0000E9431240895CF93DF93EC0148E050E03B
:1048D000BC0181E00E94312488E0FE01AEEFB3E02C
:1048E00001900D928A95E1F7DF91CF910895809123
:1048F0004904811109C00E94BB270E941828809199
:10490000E20084608093E2000895109249040895C3
:104910000E94382308956091460481E0611101C02E
:1049200080E00E942F23089590914A0481E0943002
:1049300009F080E0609146040E943523089542E02A
:1049400061EC81E00E94372742E261EC82E00E9444
:10495000372790914A0481E0943009F080E060911B
:1049600046040E942523089580914C04833009F465
:1049700061C030F48130D1F1823009F49EC00895D5
:104980008A3009F48AC08B3009F46FC0893009F08D
:1049900050C080914B04813209F04BC080914F048C
:1049A00090915004029708F044C08091E800877FFE
:1049B0008093E8008091E80082FF37C09091F30077
:1049C0008091F200029731F48091F100813011F072
:1049D000863021F48091F100809306048091E800F4
:1049E0008B778093E8000E946B2723C080914B0453
:1049F000813AF9F48091E800877F8093E800809104
:104A00004F0490915004892B61F468E08EEF93E09D
:104A100070E00E947A268091E8008B778093E8000E
:104A2000089560E090E080E0F3CF80914A04811126
:104A3000C1CF089580914B04813AD9F780914F04FA
:104A400090915004892BA9F78091E800877F80938B
:104A5000E8008091E80080FFFCCF809153028093B2
:104A6000F1008091E8008E77BCCF80914B048132B9
:104A700001F780914F0490915004892BD1F68091D9
:104A8000E800877F8093E8000E946B2780914D04A7
:104A9000809353020E944B09089580914B04813208
:104AA00041F68091E800877F8093E8000E946B27A1
:104AB00080914E0480930704089580914B04813ABD
:104AC00009F0B7CF8091E800877F8093E80080915C
:104AD000E80080FFFCCF80910704C1CF84B7877FB7
:104AE00084BF0FB6F894A895809160008861809388
:104AF0006000109260000FBE80E890E00FB6F8945E
:104B000080936100909361000FBE0E943E23089540
:104B10000E94BB270E941828E2EEF0E080818460AA
:104B2000808378940E94972A089589E492E00E94F5
:104B30001122089580914A04853031F480914A040D
:104B4000853019F00E94B82308950E948D2380912A
:104B50004804882399F30E944B23882379F30E9409
:104B600015260E944B09EACF08959A0140915104FD
:104B7000509152040E94BD250895492F5527433076
:104B8000510519F168F44130510509F444C042302F
:104B9000510509F445C090E080E050E040E025C0B8
:104BA0004132510549F142325105A9F784E490E0C0
:104BB0004EEA55E061157105C1F08BE790E043E3E3
:104BC00055E06130710589F0E6CF99278130910574
:104BD00081F0009729F00297F1F6EEEBF4E002C0C5
:104BE000E2EEF4E0849190E0AF01F901518340835B
:104BF0000895E4EDF4E0F6CF89E090E048EF54E06A
:104C00006115710591F389E090E041E155E0613073
:104C1000710559F3C0CF82E190E041E255E0E5CF64
:104C20008BE390E046EE54E0E0CF80E189BD82E185
:104C300089BD09B400FEFDCF8091D8008F7D80939F
:104C4000D8008091E00082608093E0008091E000D5
:104C500081FDFCCF0895AF92BF92CF92DF92FF9279
:104C60000F931F93CF93DF936C01EB018A010E9496
:104C70008A27F82E811123C00115110539F0F8019A
:104C800080819181C81BD90BC80ED91EB12CA12CD3
:104C90002097A9F08091E80085FD22C08091E8006E
:104CA0008E778093E80001151105A1F0F80180814D
:104CB0009181A80EB91EB182A08285E0F82E8F2DB9
:104CC000DF91CF911F910F91FF90DF90CF90BF9018
:104CD000AF9008950E948A278823D1F2F82EEFCF53
:104CE000F60181916F018093F1002197FFEFAF1AD8
:104CF000BF0ACECFFC0180915104909152048617D7
:104D00009707A0F06115710529F49091E8009E774E
:104D10009093E80090E06115710551F4911108C07D
:104D20008091E80082FF34C080E00895BC01F2CF9A
:104D300080914A048823C1F18530C1F18091E80057
:104D400083FD30C08091E80082FDEACF8091E800C9
:104D500080FFE1CF8091F3002091F200382F6115A0
:104D6000710519F02830310558F091E028303105EF
:104D700009F090E02091E8002E772093E800CBCF57
:104D800081918093F100615071092F5F3F4FE7CF10
:104D900080914A04882341F0853041F08091E800F9
:104DA00083FFBECF81E0089582E0089583E00895F7
:104DB000FC01809151049091520486179707A0F04E
:104DC0006115710529F48091E8008E778093E800E1
:104DD00090E06115710551F4911108C08091E800CF
:104DE00082FF35C080E00895BC01F2CF80914A0473
:104DF0008823C9F18530C9F18091E80083FD31C075
:104E00008091E80082FDEACF8091E80080FFE1CF49
:104E10008091F3002091F200382F6115710519F08F
:104E20002830310558F091E02830310509F090E044
:104E30008091E8008E778093E800CBCF84918093B7
:104E4000F1003196615071092F5F3F4FE6CF80919D
:104E50004A04882341F0853041F08091E80083FFC7
:104E6000BDCF81E0089582E0089583E00895982FF2
:104E7000973028F08F708093E90081E00895909337
:104E8000E900242F762F50E0981731F07091EC0054
:104E90002091ED005091F00021FD02C09F5FE8CF0E
:104EA0003091EB003E7F3093EB003091ED003D7F81
:104EB0003093ED003091EB0031603093EB00709354
:104EC000EC002093ED005093F0002091EE0027FDC0
:104ED000E5CF80E0089580914B0487FF13C0809157
:104EE000E80082FF06C08091E8008B778093E8009D
:104EF00004C080914A048111F2CF089580914A0440
:104F00008823D9F38091E80080FFF8CF8091E800F2
:104F10008E77ECCF2091E4003091E50095E6A90171
:104F20002091EC00822F817020FF06C08091E80064
:104F300080FF06C080E008952091E80022FD1AC09D
:104F400080914A04882389F0853089F08091EB00B4
:104F500085FD0FC02091E4003091E5004217530712
:104F6000F9F29150E1F684E0089582E0089583E03B
:104F7000089581E008950E942A280E943228E0EED8
:104F8000F0E0808181608083E8EDF0E080818F77C0
:104F9000808319BCA7EDB0E08C918E7F8C938081CB
:104FA0008F7E80831092490408950F931F93CF93AF
:104FB000DF930E942A280E943228C8EDD0E0888121
:104FC0008F77888388818068888388818F7D8883B4
:104FD00019BC10924A041092460410924804109290
:104FE000470400EE10E0F80180818B7F8083888188
:104FF0008160888342E060E080E00E943727E1EE34
:10500000F0E080818E7F8083E2EEF0E0808181603D
:105010008083808188608083F80180818E7F808397
:10502000888180618883DF91CF911F910F910895CE
:10503000E8EDF0E080818F7E8083E7EDF0E0808115
:105040008160808384E082BF81E0809349040E9474
:10505000D5270895E8EDF0E080818E7F808310925F
:10506000E20008951092DA001092E10008951F9274
:105070000F920FB60F9211242F933F934F935F938C
:105080006F937F938F939F93AF93BF93EF93FF9310
:105090008091E10082FF0BC08091E20082FF07C097
:1050A0008091E1008B7F8093E1000E94962A80919D
:1050B000DA0080FF19C08091D80080FF15C0809170
:1050C000DA008E7F8093DA008091D90080FF96C04D
:1050D00080E189BD82E189BD09B400FEFDCF81E098
:1050E00080934A040E9477248091E10080FF19C0D8
:1050F0008091E20080FF15C08091E2008E7F809356
:10510000E2008091E20080618093E2008091D8000B
:1051100080628093D80019BC85E080934A040E9485
:105120008B248091E10084FF2BC08091E20084FFFA
:1051300027C080E189BD82E189BD89B5982F917032
:1051400080FFFBCF8091D8008F7D8093D800809125
:10515000E1008F7E8093E1008091E2008F7E80935A
:10516000E2008091E20081608093E2008091460439
:10517000882309F449C084E080934A040E9494245F
:105180008091E10083FF29C08091E20083FF25C068
:105190008091E100877F8093E10082E080934A0460
:1051A000109246048091E1008E7F8093E10080910F
:1051B000E2008E7F8093E2008091E2008061809324
:1051C000E20042E060E080E00E9437278091F0003A
:1051D00088608093F0000E948824FF91EF91BF9136
:1051E000AF919F918F917F916F915F914F913F917F
:1051F0002F910F900FBE0F901F90189519BC109211
:105200004A040E94852470CF8091E30087FD93E0DB
:1052100090934A04B3CF1F920F920FB60F921124AE
:105220002F933F934F935F936F937F938F939F93AE
:10523000AF93BF93CF93DF93EF93FF93D091E900A8
:10524000DF708091EC00C82FC17080FDC0E8109223
:10525000E9008091F000877F8093F00078940E94AD
:105260004F291092E9008091F00088608093F0004F
:10527000CD2BCF70C093E900FF91EF91DF91CF91DB
:10528000BF91AF919F918F917F916F915F914F915E
:105290003F912F910F900FBE0F901F901895AAE28B
:1052A000B0E0E5E5F9E20C945C2B8BE494E020910E
:1052B000F100FC012193CF01F4E083359F07B9F79A
:1052C0000E94B4248091E80083FF1EC180914B04AA
:1052D00090914C049A3008F017C1E92FF0E0E450A7
:1052E000F34D0C94162B803899F0823809F00CC1DC
:1052F00080914F048F70873008F006C18093E900D9
:105300008091EB0085FB882780F91092E90006C0A8
:105310008091470490914804911182609091E80037
:10532000977F9093E8008093F1001092F1008091B4
:10533000E8008E77E5C0882309F4D3C0823009F0F5
:10534000E3C080914D048111D6C080914F048F70CD
:105350002FEF280F263008F0D7C08093E900209166
:10536000EB0020FFC8C0933031F48091EB008062E5
:105370008093EB00C0C09091EB0090619093EB00A4
:1053800021E030E001C0220F8A95EAF72093EA007D
:105390001092EA008091EB008860EACF8111B4C0DE
:1053A00010914D041F778091E3008078812B8093CA
:1053B000E3008091E800877F8093E8000E946B27DC
:1053C0008091E80080FFFCCF8091E30080688093AB
:1053D000E30082E0111183E080934A0495C0805875
:1053E000823008F091C080914D0490914E048C3D24
:1053F00023E09207A1F583E08A838AE289834FB78D
:10540000F894DE01139620E03EE051E2E32FF0E055
:1054100050935700E49120FF03C0E295EF703F5F87
:10542000EF708E2F90E0EA30C0F0C7968D939D9379
:105430002F5F243159F74FBF8091E800877F809319
:10544000E8006AE270E0CE0101960E947A2680911F
:10545000E8008B778093E80057C0C096E7CF609153
:105460004F0470915004AE014F5F5F4F0E94B5250D
:10547000BC01892B09F448C09091E800977F909374
:10548000E80089819A810E94D826E1CF8038E1F531
:105490008091E800877F8093E800809146048093A4
:1054A000F10045CF811130C090914D04923060F5EC
:1054B0008091E800877F8093E800909346040E94E3
:1054C0006B2780914604882311F084E005C0809109
:1054D000E30087FDFACF81E080934A040E949F2475
:1054E00013C080914D04813079F481E0933009F04C
:1054F00080E0809348041092E9008091E800877F63
:105500008093E8000E946B278091E80083FF0AC027
:105510008091E800877F8093E8008091EB008062B3
:105520008093EB00AA96E3E00C94782B0895CF9338
:1055300080914A048823A1F0C091E900CF70909136
:10554000EC00892F817090FD80E8C82B1092E90053
:105550008091E80083FD0E944F29CF70C093E9003D
:10556000CF910895991B79E004C0991F961708F010
:10557000961B881F7A95C9F78095089587FB082E9A
:10558000062687FD819567FD61950E94B22A0EF47B
:10559000919507FC81950895AA1BBB1B51E107C09B
:1055A000AA1FBB1FA617B70710F0A61BB70B881FB3
:1055B000991F5A95A9F780959095BC01CD01089542
:1055C00097FB072E16F4009407D077FD09D00E94B0
:1055D000CC2A07FC05D03EF4909581959F4F089505
:1055E000709561957F4F0895A1E21A2EAA1BBB1BEF
:1055F000FD010DC0AA1FBB1FEE1FFF1FA217B3079F
:10560000E407F50720F0A21BB30BE40BF50B661FB4
:10561000771F881F991F1A9469F760957095809578
:1056200090959B01AC01BD01CF010895EE0FFF1FC6
:105630000590F491E02D09940E94242B332312F459
:105640008A1B9B0B0C94352BA29FB001B39FC0010A
:10565000A39F700D811D1124911DB29F700D811D9E
:105660001124911D08950E94242BB7FF0895821BD9
:10567000930B08950E94242BA59F900DB49F900D2D
:10568000A49F800D911D11240895B7FF0C943A2B0F
:105690000E943A2B821B930B08952F923F924F92B8
:1056A0005F926F927F928F929F92AF92BF92CF92B2
:1056B000DF92EF92FF920F931F93CF93DF93CDB7BB
:1056C000DEB7CA1BDB0B0FB6F894DEBF0FBECDBF33
:1056D00009942A88398848885F846E847D848C8404
:1056E0009B84AA84B984C884DF80EE80FD800C810D
:1056F0001B81AA81B981CE0FD11D0FB6F894DEBFF0
:105700000FBECDBFED010895002E083090F0982F08
:10571000872F762F652F542F432F322F22270850A3
:10572000F4CF220F331F441F551F661F771F881F9A
:10573000991F0A95B2F7002D089597FD1094002E39
:10574000083098F00850232F342F452F562F672FFD
:10575000782F892F912DF4CF15949795879577956C
:10576000679557954795379527950A95AAF7112478
:10577000002D08958F929F92AF92BF92CF92DF92A9
:10578000EF92FF92CF93DF93EC01688179818A8158
:105790009B81611571058105910521F464E279ED24
:1057A0008BE597E02DE133EF41E050E00E94912C32
:1057B00049015A019B01AC01A7EAB1E40E943A2BCE
:1057C0006B017C01ACEEB4EFA50194010E94482B63
:1057D000DC01CB018C0D9D1DAE1DBF1DB7FF03C0AD
:1057E0000197A109B04888839983AA83BB839F77D7
:1057F000DF91CF91FF90EF90DF90CF90BF90AF906F
:105800009F908F9008950E94BA2B089580E091E0B8
:105810000E94BA2B0895B0E0A0E08093000190931D
:105820000101A0930201B09303010895FC014150CE
:10583000504030F001900616D1F73197CF0108950E
:10584000882799270895FB01DC0104C08D91019000
:10585000801921F441505040C8F7881B990B0895D6
:10586000FB01DC0102C001900D9241505040D8F77D
:105870000895F999FECF92BD81BDF89A992780B518
:105880000895A6E1B0E044E050E00C94832CA8E138
:10589000B0E042E050E00C94832CDC01A40FB51F73
:1058A0004150504048F0CB01840F951F2E910E942B
:1058B0005E2C41505040D0F70895262FF999FECF25
:1058C00092BD81BDF89A019700B4021639F01FBA53
:1058D00020BD0FB6F894FA9AF99A0FBE0895039670
:1058E000272F0E945E2C0E945D2C252F0E945E2C8B
:1058F000242F0C945E2C0196272F0E945E2C0C9472
:105900005D2CDC01CB01FC01F999FECF06C0F2BD94
:10591000E1BDF89A319600B40D9241505040B8F76D
:105920000895052E97FB1EF400940E94A82C57FDA5
:1059300007D00E94F42A07FC03D04EF40C94A82C44
:1059400050954095309521953F4F4F4F5F4F0895AB
:1059500090958095709561957F4F8F4F9F4F0895DB
:10596000F894FFCF3607360786078607EB07070848
:10597000650765070C087D088C088C08AD1BB41BF7
:10598000BB1BC01BC51BCA1BCF1BD41BD91BDE1BDB
:10599000E31BE81BEC1BF11BF41BF71BFA1BFD1BA5
:1059A000FF1B021C041C371DAB1D3F1D091D0D1DD7
:1059B000431D111D471D531D1D1DA41D211D571DD8
:1059C000251D5B1D831D291D5F1D8A1D2F1D651D46
:1059D0006D1D151D4B1D191D4F1D331D691D791D95
:1059E000931DA21D031D3B1DB21DD220D820C12036
:1059F000CC20DE20E420EA2073299B29842A9B29DD
:0C5A0000842ACE29EF29842A462A522A43
:105A0C000100000000000000000000000000000089
:105A1C00000000000000000000003C214D2153213B
:105A2C00000028020000000000003C214D21532101
:105A3C00000024020000000000003C214D215321F5
:105A4C00000020020000000000003C214D215321E9
:105A5C0000001C020000000000003C214D215321DD
:105A6C00000018020000000000003C214D215321D1
:105A7C00000014020000000000003C214D215321C5
:105A8C00000010020000000000003C214D215321B9
:105A9C0000000C020000000000003C214D215321AD
:105AAC00000008020000000000003C214D215321A1
:105ABC00000004020000000000003C214D21532195
:105ACC00000000020000000000003C214D21532189
